{
  "abi": [
    {
      "inputs": [],
      "stateMutability": "nonpayable",
      "type": "constructor"
    },
    {
      "anonymous": false,
      "inputs": [
        {
          "indexed": true,
          "internalType": "address",
          "name": "owner",
          "type": "address"
        },
        {
          "indexed": true,
          "internalType": "address",
          "name": "approved",
          "type": "address"
        },
        {
          "indexed": true,
          "internalType": "uint256",
          "name": "tokenId",
          "type": "uint256"
        }
      ],
      "name": "Approval",
      "type": "event"
    },
    {
      "anonymous": false,
      "inputs": [
        {
          "indexed": true,
          "internalType": "address",
          "name": "owner",
          "type": "address"
        },
        {
          "indexed": true,
          "internalType": "address",
          "name": "operator",
          "type": "address"
        },
        {
          "indexed": false,
          "internalType": "bool",
          "name": "approved",
          "type": "bool"
        }
      ],
      "name": "ApprovalForAll",
      "type": "event"
    },
    {
      "anonymous": false,
      "inputs": [
        {
          "indexed": true,
          "internalType": "address",
          "name": "from",
          "type": "address"
        },
        {
          "indexed": true,
          "internalType": "address",
          "name": "to",
          "type": "address"
        },
        {
          "indexed": true,
          "internalType": "uint256",
          "name": "tokenId",
          "type": "uint256"
        }
      ],
      "name": "Transfer",
      "type": "event"
    },
    {
      "inputs": [
        {
          "internalType": "address",
          "name": "to",
          "type": "address"
        },
        {
          "internalType": "uint256",
          "name": "tokenId",
          "type": "uint256"
        }
      ],
      "name": "approve",
      "outputs": [],
      "stateMutability": "nonpayable",
      "type": "function"
    },
    {
      "inputs": [
        {
          "internalType": "address",
          "name": "owner",
          "type": "address"
        }
      ],
      "name": "balanceOf",
      "outputs": [
        {
          "internalType": "uint256",
          "name": "",
          "type": "uint256"
        }
      ],
      "stateMutability": "view",
      "type": "function"
    },
    {
      "inputs": [
        {
          "internalType": "uint256",
          "name": "tokenId",
          "type": "uint256"
        }
      ],
      "name": "getApproved",
      "outputs": [
        {
          "internalType": "address",
          "name": "",
          "type": "address"
        }
      ],
      "stateMutability": "view",
      "type": "function"
    },
    {
      "inputs": [
        {
          "internalType": "address",
          "name": "owner",
          "type": "address"
        },
        {
          "internalType": "address",
          "name": "operator",
          "type": "address"
        }
      ],
      "name": "isApprovedForAll",
      "outputs": [
        {
          "internalType": "bool",
          "name": "",
          "type": "bool"
        }
      ],
      "stateMutability": "view",
      "type": "function"
    },
    {
      "inputs": [],
      "name": "name",
      "outputs": [
        {
          "internalType": "string",
          "name": "",
          "type": "string"
        }
      ],
      "stateMutability": "view",
      "type": "function"
    },
    {
      "inputs": [
        {
          "internalType": "uint256",
          "name": "tokenId",
          "type": "uint256"
        }
      ],
      "name": "ownerOf",
      "outputs": [
        {
          "internalType": "address",
          "name": "",
          "type": "address"
        }
      ],
      "stateMutability": "view",
      "type": "function"
    },
    {
      "inputs": [
        {
          "internalType": "string",
          "name": "TokenUri",
          "type": "string"
        },
        {
          "internalType": "address",
          "name": "_neutrinoEstateAddress",
          "type": "address"
        }
      ],
      "name": "safeMint",
      "outputs": [],
      "stateMutability": "nonpayable",
      "type": "function"
    },
    {
      "inputs": [
        {
          "internalType": "address",
          "name": "from",
          "type": "address"
        },
        {
          "internalType": "address",
          "name": "to",
          "type": "address"
        },
        {
          "internalType": "uint256",
          "name": "tokenId",
          "type": "uint256"
        }
      ],
      "name": "safeTransferFrom",
      "outputs": [],
      "stateMutability": "nonpayable",
      "type": "function"
    },
    {
      "inputs": [
        {
          "internalType": "address",
          "name": "from",
          "type": "address"
        },
        {
          "internalType": "address",
          "name": "to",
          "type": "address"
        },
        {
          "internalType": "uint256",
          "name": "tokenId",
          "type": "uint256"
        },
        {
          "internalType": "bytes",
          "name": "data",
          "type": "bytes"
        }
      ],
      "name": "safeTransferFrom",
      "outputs": [],
      "stateMutability": "nonpayable",
      "type": "function"
    },
    {
      "inputs": [
        {
          "internalType": "address",
          "name": "operator",
          "type": "address"
        },
        {
          "internalType": "bool",
          "name": "approved",
          "type": "bool"
        }
      ],
      "name": "setApprovalForAll",
      "outputs": [],
      "stateMutability": "nonpayable",
      "type": "function"
    },
    {
      "inputs": [
        {
          "internalType": "bytes4",
          "name": "interfaceId",
          "type": "bytes4"
        }
      ],
      "name": "supportsInterface",
      "outputs": [
        {
          "internalType": "bool",
          "name": "",
          "type": "bool"
        }
      ],
      "stateMutability": "view",
      "type": "function"
    },
    {
      "inputs": [],
      "name": "symbol",
      "outputs": [
        {
          "internalType": "string",
          "name": "",
          "type": "string"
        }
      ],
      "stateMutability": "view",
      "type": "function"
    },
    {
      "inputs": [
        {
          "internalType": "uint256",
          "name": "tokenId",
          "type": "uint256"
        }
      ],
      "name": "tokenURI",
      "outputs": [
        {
          "internalType": "string",
          "name": "",
          "type": "string"
        }
      ],
      "stateMutability": "view",
      "type": "function"
    },
    {
      "inputs": [
        {
          "internalType": "address",
          "name": "from",
          "type": "address"
        },
        {
          "internalType": "address",
          "name": "to",
          "type": "address"
        },
        {
          "internalType": "uint256",
          "name": "tokenId",
          "type": "uint256"
        }
      ],
      "name": "transferFrom",
      "outputs": [],
      "stateMutability": "nonpayable",
      "type": "function"
    }
  ],
  "bytecode": {
    "object": "0x60806040523480156200001157600080fd5b50604051806040016040528060088152602001674e65757472696e6f60c01b81525060405180604001604052806003815260200162272a2760e91b81525081600090816200006091906200011d565b5060016200006f82826200011d565b505050620001e9565b634e487b7160e01b600052604160045260246000fd5b600181811c90821680620000a357607f821691505b602082108103620000c457634e487b7160e01b600052602260045260246000fd5b50919050565b601f8211156200011857600081815260208120601f850160051c81016020861015620000f35750805b601f850160051c820191505b818110156200011457828155600101620000ff565b5050505b505050565b81516001600160401b0381111562000139576200013962000078565b62000151816200014a84546200008e565b84620000ca565b602080601f831160018114620001895760008415620001705750858301515b600019600386901b1c1916600185901b17855562000114565b600085815260208120601f198616915b82811015620001ba5788860151825594840194600190910190840162000199565b5085821015620001d95787850151600019600388901b60f8161c191681555b5050505050600190811b01905550565b61160580620001f96000396000f3fe608060405234801561001057600080fd5b50600436106100ea5760003560e01c806370a082311161008c578063b88d4fde11610066578063b88d4fde146101e1578063c6f05771146101f4578063c87b56dd14610207578063e985e9c51461021a57600080fd5b806370a08231146101a557806395d89b41146101c6578063a22cb465146101ce57600080fd5b8063095ea7b3116100c8578063095ea7b31461015757806323b872dd1461016c57806342842e0e1461017f5780636352211e1461019257600080fd5b806301ffc9a7146100ef57806306fdde0314610117578063081812fc1461012c575b600080fd5b6101026100fd366004611014565b610256565b60405190151581526020015b60405180910390f35b61011f6102a8565b60405161010e9190611081565b61013f61013a366004611094565b61033a565b6040516001600160a01b03909116815260200161010e565b61016a6101653660046110c9565b610361565b005b61016a61017a3660046110f3565b61047b565b61016a61018d3660046110f3565b6104ac565b61013f6101a0366004611094565b6104c7565b6101b86101b336600461112f565b610527565b60405190815260200161010e565b61011f6105ad565b61016a6101dc36600461114a565b6105bc565b61016a6101ef366004611212565b6105cb565b61016a61020236600461128e565b610603565b61011f610215366004611094565b61063d565b6101026102283660046112f0565b6001600160a01b03918216600090815260056020908152604080832093909416825291909152205460ff1690565b60006001600160e01b031982166380ac58cd60e01b148061028757506001600160e01b03198216635b5e139f60e01b145b806102a257506301ffc9a760e01b6001600160e01b03198316145b92915050565b6060600080546102b79061131a565b80601f01602080910402602001604051908101604052809291908181526020018280546102e39061131a565b80156103305780601f1061030557610100808354040283529160200191610330565b820191906000526020600020905b81548152906001019060200180831161031357829003601f168201915b5050505050905090565b60006103458261074d565b506000908152600460205260409020546001600160a01b031690565b600061036c826104c7565b9050806001600160a01b0316836001600160a01b0316036103de5760405162461bcd60e51b815260206004820152602160248201527f4552433732313a20617070726f76616c20746f2063757272656e74206f776e656044820152603960f91b60648201526084015b60405180910390fd5b336001600160a01b03821614806103fa57506103fa8133610228565b61046c5760405162461bcd60e51b815260206004820152603d60248201527f4552433732313a20617070726f76652063616c6c6572206973206e6f7420746f60448201527f6b656e206f776e6572206f7220617070726f76656420666f7220616c6c00000060648201526084016103d5565b61047683836107af565b505050565b610485338261081d565b6104a15760405162461bcd60e51b81526004016103d590611354565b61047683838361089b565b610476838383604051806020016040528060008152506105cb565b6000818152600260205260408120546001600160a01b0316806102a25760405162461bcd60e51b8152602060048201526018602482015277115490cdcc8c4e881a5b9d985b1a59081d1bdad95b88125160421b60448201526064016103d5565b60006001600160a01b0382166105915760405162461bcd60e51b815260206004820152602960248201527f4552433732313a2061646472657373207a65726f206973206e6f7420612076616044820152683634b21037bbb732b960b91b60648201526084016103d5565b506001600160a01b031660009081526003602052604090205490565b6060600180546102b79061131a565b6105c73383836109ff565b5050565b6105d5338361081d565b6105f15760405162461bcd60e51b81526004016103d590611354565b6105fd84848484610acd565b50505050565b600061060e60075490565b905061061e600780546001019055565b6106283382610b00565b6106328184610c8b565b6104768260016105bc565b60606106488261074d565b600082815260066020526040812080546106619061131a565b80601f016020809104026020016040519081016040528092919081815260200182805461068d9061131a565b80156106da5780601f106106af576101008083540402835291602001916106da565b820191906000526020600020905b8154815290600101906020018083116106bd57829003601f168201915b5050505050905060006106f860408051602081019091526000815290565b9050805160000361070a575092915050565b81511561073c5780826040516020016107249291906113a1565b60405160208183030381529060405292505050919050565b61074584610d1e565b949350505050565b6000818152600260205260409020546001600160a01b03166107ac5760405162461bcd60e51b8152602060048201526018602482015277115490cdcc8c4e881a5b9d985b1a59081d1bdad95b88125160421b60448201526064016103d5565b50565b600081815260046020526040902080546001600160a01b0319166001600160a01b03841690811790915581906107e4826104c7565b6001600160a01b03167f8c5be1e5ebec7d5bd14f71427d1e84f3dd0314c0f7b2291e5b200ac8c7c3b92560405160405180910390a45050565b600080610829836104c7565b9050806001600160a01b0316846001600160a01b0316148061087057506001600160a01b0380821660009081526005602090815260408083209388168352929052205460ff165b806107455750836001600160a01b03166108898461033a565b6001600160a01b031614949350505050565b826001600160a01b03166108ae826104c7565b6001600160a01b0316146108d45760405162461bcd60e51b81526004016103d5906113d0565b6001600160a01b0382166109365760405162461bcd60e51b8152602060048201526024808201527f4552433732313a207472616e7366657220746f20746865207a65726f206164646044820152637265737360e01b60648201526084016103d5565b826001600160a01b0316610949826104c7565b6001600160a01b03161461096f5760405162461bcd60e51b81526004016103d5906113d0565b600081815260046020908152604080832080546001600160a01b03199081169091556001600160a01b0387811680865260038552838620805460001901905590871680865283862080546001019055868652600290945282852080549092168417909155905184937fddf252ad1be2c89b69c2b068fc378daa952ba7f163c4a11628f55a4df523b3ef91a4505050565b816001600160a01b0316836001600160a01b031603610a605760405162461bcd60e51b815260206004820152601960248201527f4552433732313a20617070726f766520746f2063616c6c65720000000000000060448201526064016103d5565b6001600160a01b03838116600081815260056020908152604080832094871680845294825291829020805460ff191686151590811790915591519182527f17307eab39ab6107e8899845ad3d59bd9653f200f220920489ca2b5937696c31910160405180910390a3505050565b610ad884848461089b565b610ae484848484610d92565b6105fd5760405162461bcd60e51b81526004016103d590611415565b6001600160a01b038216610b565760405162461bcd60e51b815260206004820181905260248201527f4552433732313a206d696e7420746f20746865207a65726f206164647265737360448201526064016103d5565b6000818152600260205260409020546001600160a01b031615610bbb5760405162461bcd60e51b815260206004820152601c60248201527f4552433732313a20746f6b656e20616c7265616479206d696e7465640000000060448201526064016103d5565b6000818152600260205260409020546001600160a01b031615610c205760405162461bcd60e51b815260206004820152601c60248201527f4552433732313a20746f6b656e20616c7265616479206d696e7465640000000060448201526064016103d5565b6001600160a01b038216600081815260036020908152604080832080546001019055848352600290915280822080546001600160a01b0319168417905551839291907fddf252ad1be2c89b69c2b068fc378daa952ba7f163c4a11628f55a4df523b3ef908290a45050565b6000828152600260205260409020546001600160a01b0316610d065760405162461bcd60e51b815260206004820152602e60248201527f45524337323155524953746f726167653a2055524920736574206f66206e6f6e60448201526d32bc34b9ba32b73a103a37b5b2b760911b60648201526084016103d5565b600082815260066020526040902061047682826114b5565b6060610d298261074d565b6000610d4060408051602081019091526000815290565b90506000815111610d605760405180602001604052806000815250610d8b565b80610d6a84610e93565b604051602001610d7b9291906113a1565b6040516020818303038152906040525b9392505050565b60006001600160a01b0384163b15610e8857604051630a85bd0160e11b81526001600160a01b0385169063150b7a0290610dd6903390899088908890600401611575565b6020604051808303816000875af1925050508015610e11575060408051601f3d908101601f19168201909252610e0e918101906115b2565b60015b610e6e573d808015610e3f576040519150601f19603f3d011682016040523d82523d6000602084013e610e44565b606091505b508051600003610e665760405162461bcd60e51b81526004016103d590611415565b805181602001fd5b6001600160e01b031916630a85bd0160e11b149050610745565b506001949350505050565b60606000610ea083610f26565b600101905060008167ffffffffffffffff811115610ec057610ec0611186565b6040519080825280601f01601f191660200182016040528015610eea576020820181803683370190505b5090508181016020015b600019016f181899199a1a9b1b9c1cb0b131b232b360811b600a86061a8153600a8504945084610ef457509392505050565b60008072184f03e93ff9f4daa797ed6e38ed64bf6a1f0160401b8310610f655772184f03e93ff9f4daa797ed6e38ed64bf6a1f0160401b830492506040015b6d04ee2d6d415b85acef81000000008310610f91576d04ee2d6d415b85acef8100000000830492506020015b662386f26fc100008310610faf57662386f26fc10000830492506010015b6305f5e1008310610fc7576305f5e100830492506008015b6127108310610fdb57612710830492506004015b60648310610fed576064830492506002015b600a83106102a25760010192915050565b6001600160e01b0319811681146107ac57600080fd5b60006020828403121561102657600080fd5b8135610d8b81610ffe565b60005b8381101561104c578181015183820152602001611034565b50506000910152565b6000815180845261106d816020860160208601611031565b601f01601f19169290920160200192915050565b602081526000610d8b6020830184611055565b6000602082840312156110a657600080fd5b5035919050565b80356001600160a01b03811681146110c457600080fd5b919050565b600080604083850312156110dc57600080fd5b6110e5836110ad565b946020939093013593505050565b60008060006060848603121561110857600080fd5b611111846110ad565b925061111f602085016110ad565b9150604084013590509250925092565b60006020828403121561114157600080fd5b610d8b826110ad565b6000806040838503121561115d57600080fd5b611166836110ad565b91506020830135801515811461117b57600080fd5b809150509250929050565b634e487b7160e01b600052604160045260246000fd5b600067ffffffffffffffff808411156111b7576111b7611186565b604051601f8501601f19908116603f011681019082821181831017156111df576111df611186565b816040528093508581528686860111156111f857600080fd5b858560208301376000602087830101525050509392505050565b6000806000806080858703121561122857600080fd5b611231856110ad565b935061123f602086016110ad565b925060408501359150606085013567ffffffffffffffff81111561126257600080fd5b8501601f8101871361127357600080fd5b6112828782356020840161119c565b91505092959194509250565b600080604083850312156112a157600080fd5b823567ffffffffffffffff8111156112b857600080fd5b8301601f810185136112c957600080fd5b6112d88582356020840161119c565b9250506112e7602084016110ad565b90509250929050565b6000806040838503121561130357600080fd5b61130c836110ad565b91506112e7602084016110ad565b600181811c9082168061132e57607f821691505b60208210810361134e57634e487b7160e01b600052602260045260246000fd5b50919050565b6020808252602d908201527f4552433732313a2063616c6c6572206973206e6f7420746f6b656e206f776e6560408201526c1c881bdc88185c1c1c9bdd9959609a1b606082015260800190565b600083516113b3818460208801611031565b8351908301906113c7818360208801611031565b01949350505050565b60208082526025908201527f4552433732313a207472616e736665722066726f6d20696e636f72726563742060408201526437bbb732b960d91b606082015260800190565b60208082526032908201527f4552433732313a207472616e7366657220746f206e6f6e20455243373231526560408201527131b2b4bb32b91034b6b83632b6b2b73a32b960711b606082015260800190565b601f82111561047657600081815260208120601f850160051c8101602086101561148e5750805b601f850160051c820191505b818110156114ad5782815560010161149a565b505050505050565b815167ffffffffffffffff8111156114cf576114cf611186565b6114e3816114dd845461131a565b84611467565b602080601f83116001811461151857600084156115005750858301515b600019600386901b1c1916600185901b1785556114ad565b600085815260208120601f198616915b8281101561154757888601518255948401946001909101908401611528565b50858210156115655787850151600019600388901b60f8161c191681555b5050505050600190811b01905550565b6001600160a01b03858116825284166020820152604081018390526080606082018190526000906115a890830184611055565b9695505050505050565b6000602082840312156115c457600080fd5b8151610d8b81610ffe56fea26469706673582212208339b2f8c5b887d294800f3d053b2341a246d13559ee44faff0837583aeccd6964736f6c63430008110033",
    "linkReferences": {}
  },
  "methodIdentifiers": {
    "approve(address,uint256)": "095ea7b3",
    "balanceOf(address)": "70a08231",
    "getApproved(uint256)": "081812fc",
    "isApprovedForAll(address,address)": "e985e9c5",
    "name()": "06fdde03",
    "ownerOf(uint256)": "6352211e",
    "safeMint(string,address)": "c6f05771",
    "safeTransferFrom(address,address,uint256)": "42842e0e",
    "safeTransferFrom(address,address,uint256,bytes)": "b88d4fde",
    "setApprovalForAll(address,bool)": "a22cb465",
    "supportsInterface(bytes4)": "01ffc9a7",
    "symbol()": "95d89b41",
    "tokenURI(uint256)": "c87b56dd",
    "transferFrom(address,address,uint256)": "23b872dd"
  },
  "id": 37
}