{
  "abi": [
    {
      "inputs": [
        {
          "internalType": "address",
          "name": "_NFTAddress",
          "type": "address"
        },
        {
          "internalType": "uint256",
          "name": "_NFTId",
          "type": "uint256"
        },
        {
          "internalType": "address",
          "name": "_NFTOwner",
          "type": "address"
        },
        {
          "internalType": "uint256",
          "name": "_supply",
          "type": "uint256"
        },
        {
          "internalType": "string",
          "name": "_tokenName",
          "type": "string"
        },
        {
          "internalType": "string",
          "name": "_tokenSymbol",
          "type": "string"
        },
        {
          "internalType": "address",
          "name": "_estate",
          "type": "address"
        }
      ],
      "stateMutability": "nonpayable",
      "type": "constructor"
    },
    {
      "anonymous": false,
      "inputs": [
        {
          "indexed": true,
          "internalType": "address",
          "name": "owner",
          "type": "address"
        },
        {
          "indexed": true,
          "internalType": "address",
          "name": "spender",
          "type": "address"
        },
        {
          "indexed": false,
          "internalType": "uint256",
          "name": "value",
          "type": "uint256"
        }
      ],
      "name": "Approval",
      "type": "event"
    },
    {
      "anonymous": false,
      "inputs": [
        {
          "indexed": true,
          "internalType": "address",
          "name": "from",
          "type": "address"
        },
        {
          "indexed": true,
          "internalType": "address",
          "name": "to",
          "type": "address"
        },
        {
          "indexed": false,
          "internalType": "uint256",
          "name": "value",
          "type": "uint256"
        }
      ],
      "name": "Transfer",
      "type": "event"
    },
    {
      "inputs": [],
      "name": "ContractDeployer",
      "outputs": [
        {
          "internalType": "address",
          "name": "",
          "type": "address"
        }
      ],
      "stateMutability": "view",
      "type": "function"
    },
    {
      "inputs": [],
      "name": "NFTAddress",
      "outputs": [
        {
          "internalType": "address",
          "name": "",
          "type": "address"
        }
      ],
      "stateMutability": "view",
      "type": "function"
    },
    {
      "inputs": [],
      "name": "NFTId",
      "outputs": [
        {
          "internalType": "uint256",
          "name": "",
          "type": "uint256"
        }
      ],
      "stateMutability": "view",
      "type": "function"
    },
    {
      "inputs": [],
      "name": "NFTOwner",
      "outputs": [
        {
          "internalType": "address",
          "name": "",
          "type": "address"
        }
      ],
      "stateMutability": "view",
      "type": "function"
    },
    {
      "inputs": [
        {
          "internalType": "address",
          "name": "owner",
          "type": "address"
        },
        {
          "internalType": "address",
          "name": "spender",
          "type": "address"
        }
      ],
      "name": "allowance",
      "outputs": [
        {
          "internalType": "uint256",
          "name": "",
          "type": "uint256"
        }
      ],
      "stateMutability": "view",
      "type": "function"
    },
    {
      "inputs": [
        {
          "internalType": "address",
          "name": "spender",
          "type": "address"
        },
        {
          "internalType": "uint256",
          "name": "amount",
          "type": "uint256"
        }
      ],
      "name": "approve",
      "outputs": [
        {
          "internalType": "bool",
          "name": "",
          "type": "bool"
        }
      ],
      "stateMutability": "nonpayable",
      "type": "function"
    },
    {
      "inputs": [
        {
          "internalType": "address",
          "name": "account",
          "type": "address"
        }
      ],
      "name": "balanceOf",
      "outputs": [
        {
          "internalType": "uint256",
          "name": "",
          "type": "uint256"
        }
      ],
      "stateMutability": "view",
      "type": "function"
    },
    {
      "inputs": [
        {
          "internalType": "uint256",
          "name": "amount",
          "type": "uint256"
        }
      ],
      "name": "burn",
      "outputs": [],
      "stateMutability": "nonpayable",
      "type": "function"
    },
    {
      "inputs": [
        {
          "internalType": "uint256",
          "name": "amount",
          "type": "uint256"
        },
        {
          "internalType": "address",
          "name": "addressToBurn",
          "type": "address"
        }
      ],
      "name": "burn",
      "outputs": [],
      "stateMutability": "nonpayable",
      "type": "function"
    },
    {
      "inputs": [
        {
          "internalType": "address",
          "name": "account",
          "type": "address"
        },
        {
          "internalType": "uint256",
          "name": "amount",
          "type": "uint256"
        }
      ],
      "name": "burnFrom",
      "outputs": [],
      "stateMutability": "nonpayable",
      "type": "function"
    },
    {
      "inputs": [],
      "name": "decimals",
      "outputs": [
        {
          "internalType": "uint8",
          "name": "",
          "type": "uint8"
        }
      ],
      "stateMutability": "view",
      "type": "function"
    },
    {
      "inputs": [
        {
          "internalType": "address",
          "name": "spender",
          "type": "address"
        },
        {
          "internalType": "uint256",
          "name": "subtractedValue",
          "type": "uint256"
        }
      ],
      "name": "decreaseAllowance",
      "outputs": [
        {
          "internalType": "bool",
          "name": "",
          "type": "bool"
        }
      ],
      "stateMutability": "nonpayable",
      "type": "function"
    },
    {
      "inputs": [
        {
          "internalType": "address",
          "name": "spender",
          "type": "address"
        },
        {
          "internalType": "uint256",
          "name": "addedValue",
          "type": "uint256"
        }
      ],
      "name": "increaseAllowance",
      "outputs": [
        {
          "internalType": "bool",
          "name": "",
          "type": "bool"
        }
      ],
      "stateMutability": "nonpayable",
      "type": "function"
    },
    {
      "inputs": [],
      "name": "name",
      "outputs": [
        {
          "internalType": "string",
          "name": "",
          "type": "string"
        }
      ],
      "stateMutability": "view",
      "type": "function"
    },
    {
      "inputs": [],
      "name": "symbol",
      "outputs": [
        {
          "internalType": "string",
          "name": "",
          "type": "string"
        }
      ],
      "stateMutability": "view",
      "type": "function"
    },
    {
      "inputs": [],
      "name": "totalSupply",
      "outputs": [
        {
          "internalType": "uint256",
          "name": "",
          "type": "uint256"
        }
      ],
      "stateMutability": "view",
      "type": "function"
    },
    {
      "inputs": [
        {
          "internalType": "address",
          "name": "to",
          "type": "address"
        },
        {
          "internalType": "uint256",
          "name": "amount",
          "type": "uint256"
        }
      ],
      "name": "transfer",
      "outputs": [
        {
          "internalType": "bool",
          "name": "",
          "type": "bool"
        }
      ],
      "stateMutability": "nonpayable",
      "type": "function"
    },
    {
      "inputs": [
        {
          "internalType": "address",
          "name": "from",
          "type": "address"
        },
        {
          "internalType": "address",
          "name": "to",
          "type": "address"
        },
        {
          "internalType": "uint256",
          "name": "amount",
          "type": "uint256"
        }
      ],
      "name": "transferFrom",
      "outputs": [
        {
          "internalType": "bool",
          "name": "",
          "type": "bool"
        }
      ],
      "stateMutability": "nonpayable",
      "type": "function"
    }
  ],
  "bytecode": {
    "object": "0x60806040523480156200001157600080fd5b50604051620010c5380380620010c5833981016040819052620000349162000268565b82826003620000448382620003ac565b506004620000538282620003ac565b5050600580546001600160a01b03808b166001600160a01b03199283161790925560068990556007805489841690831617905560088054821633179055600b80549285169290911691909117905550620000ae8585620000bb565b50505050505050620004a0565b6001600160a01b038216620001165760405162461bcd60e51b815260206004820152601f60248201527f45524332303a206d696e7420746f20746865207a65726f206164647265737300604482015260640160405180910390fd5b80600260008282546200012a919062000478565b90915550506001600160a01b038216600081815260208181526040808320805486019055518481527fddf252ad1be2c89b69c2b068fc378daa952ba7f163c4a11628f55a4df523b3ef910160405180910390a35050565b505050565b80516001600160a01b03811681146200019e57600080fd5b919050565b634e487b7160e01b600052604160045260246000fd5b600082601f830112620001cb57600080fd5b81516001600160401b0380821115620001e857620001e8620001a3565b604051601f8301601f19908116603f01168101908282118183101715620002135762000213620001a3565b816040528381526020925086838588010111156200023057600080fd5b600091505b8382101562000254578582018301518183018401529082019062000235565b600093810190920192909252949350505050565b600080600080600080600060e0888a0312156200028457600080fd5b6200028f8862000186565b965060208801519550620002a66040890162000186565b606089015160808a015191965094506001600160401b0380821115620002cb57600080fd5b620002d98b838c01620001b9565b945060a08a0151915080821115620002f057600080fd5b50620002ff8a828b01620001b9565b9250506200031060c0890162000186565b905092959891949750929550565b600181811c908216806200033357607f821691505b6020821081036200035457634e487b7160e01b600052602260045260246000fd5b50919050565b601f8211156200018157600081815260208120601f850160051c81016020861015620003835750805b601f850160051c820191505b81811015620003a4578281556001016200038f565b505050505050565b81516001600160401b03811115620003c857620003c8620001a3565b620003e081620003d984546200031e565b846200035a565b602080601f831160018114620004185760008415620003ff5750858301515b600019600386901b1c1916600185901b178555620003a4565b600085815260208120601f198616915b82811015620004495788860151825594840194600190910190840162000428565b5085821015620004685787850151600019600388901b60f8161c191681555b5050505050600190811b01905550565b808201808211156200049a57634e487b7160e01b600052601160045260246000fd5b92915050565b610c1580620004b06000396000f3fe608060405234801561001057600080fd5b50600436106101165760003560e01c806355150d24116100a2578063a457c2d711610071578063a457c2d714610247578063a9059cbb1461025a578063bed1dbbe1461026d578063dd62ed3e14610280578063fcd3533c1461029357600080fd5b806355150d24146101f057806370a082311461020357806379cc67901461022c57806395d89b411461023f57600080fd5b806323b872dd116100e957806323b872dd1461017b578063310c87cc1461018e578063313ce567146101b957806339509351146101c857806342966c68146101db57600080fd5b806306fdde031461011b578063095ea7b3146101395780630fe550d11461015c57806318160ddd14610173575b600080fd5b6101236102a6565b6040516101309190610a23565b60405180910390f35b61014c610147366004610a8d565b610338565b6040519015158152602001610130565b61016560065481565b604051908152602001610130565b600254610165565b61014c610189366004610ab7565b610352565b6005546101a1906001600160a01b031681565b6040516001600160a01b039091168152602001610130565b60405160128152602001610130565b61014c6101d6366004610a8d565b6103fe565b6101ee6101e9366004610af3565b610420565b005b6008546101a1906001600160a01b031681565b610165610211366004610b0c565b6001600160a01b031660009081526020819052604090205490565b6101ee61023a366004610a8d565b61042d565b610123610446565b61014c610255366004610a8d565b610455565b61014c610268366004610a8d565b6104d0565b6007546101a1906001600160a01b031681565b61016561028e366004610b2e565b610536565b6101ee6102a1366004610b61565b610561565b6060600380546102b590610b84565b80601f01602080910402602001604051908101604052809291908181526020018280546102e190610b84565b801561032e5780601f106103035761010080835404028352916020019161032e565b820191906000526020600020905b81548152906001019060200180831161031157829003601f168201915b5050505050905090565b6000336103468185856105b6565b60019150505b92915050565b600061035d60025490565b6001600160a01b0384811660009081526020819052604080822054928816825290205461038a9190610bbe565b146103dc5760405162461bcd60e51b815260206004820152601760248201527f63616e6e6f7420757365207472616e7366657266726f6d00000000000000000060448201526064015b60405180910390fd5b336103e88582856106db565b6103f3858585610755565b506001949350505050565b6000336103468185856104118383610536565b61041b9190610bbe565b6105b6565b61042a33826108f9565b50565b6104388233836106db565b61044282826108f9565b5050565b6060600480546102b590610b84565b600033816104638286610536565b9050838110156104c35760405162461bcd60e51b815260206004820152602560248201527f45524332303a2064656372656173656420616c6c6f77616e63652062656c6f77604482015264207a65726f60d81b60648201526084016103d3565b6103f382868684036105b6565b60006104db60025490565b336000908152602081905260409020541461052a5760405162461bcd60e51b815260206004820152600f60248201526e31b0b73737ba103a3930b739b332b960891b60448201526064016103d3565b33610346818585610755565b6001600160a01b03918216600090815260016020908152604080832093909416825291909152205490565b600b546001600160a01b031633146105ac5760405162461bcd60e51b815260206004820152600e60248201526d1b9bdd08185d5d1a1bdc9a5e995960921b60448201526064016103d3565b61044281836108f9565b6001600160a01b0383166106185760405162461bcd60e51b8152602060048201526024808201527f45524332303a20617070726f76652066726f6d20746865207a65726f206164646044820152637265737360e01b60648201526084016103d3565b6001600160a01b0382166106795760405162461bcd60e51b815260206004820152602260248201527f45524332303a20617070726f766520746f20746865207a65726f206164647265604482015261737360f01b60648201526084016103d3565b6001600160a01b0383811660008181526001602090815260408083209487168084529482529182902085905590518481527f8c5be1e5ebec7d5bd14f71427d1e84f3dd0314c0f7b2291e5b200ac8c7c3b92591015b60405180910390a3505050565b60006106e78484610536565b9050600019811461074f57818110156107425760405162461bcd60e51b815260206004820152601d60248201527f45524332303a20696e73756666696369656e7420616c6c6f77616e636500000060448201526064016103d3565b61074f84848484036105b6565b50505050565b6001600160a01b0383166107b95760405162461bcd60e51b815260206004820152602560248201527f45524332303a207472616e736665722066726f6d20746865207a65726f206164604482015264647265737360d81b60648201526084016103d3565b6001600160a01b03821661081b5760405162461bcd60e51b815260206004820152602360248201527f45524332303a207472616e7366657220746f20746865207a65726f206164647260448201526265737360e81b60648201526084016103d3565b6001600160a01b038316600090815260208190526040902054818110156108935760405162461bcd60e51b815260206004820152602660248201527f45524332303a207472616e7366657220616d6f756e7420657863656564732062604482015265616c616e636560d01b60648201526084016103d3565b6001600160a01b03848116600081815260208181526040808320878703905593871680835291849020805487019055925185815290927fddf252ad1be2c89b69c2b068fc378daa952ba7f163c4a11628f55a4df523b3ef910160405180910390a361074f565b6001600160a01b0382166109595760405162461bcd60e51b815260206004820152602160248201527f45524332303a206275726e2066726f6d20746865207a65726f206164647265736044820152607360f81b60648201526084016103d3565b6001600160a01b038216600090815260208190526040902054818110156109cd5760405162461bcd60e51b815260206004820152602260248201527f45524332303a206275726e20616d6f756e7420657863656564732062616c616e604482015261636560f01b60648201526084016103d3565b6001600160a01b0383166000818152602081815260408083208686039055600280548790039055518581529192917fddf252ad1be2c89b69c2b068fc378daa952ba7f163c4a11628f55a4df523b3ef91016106ce565b600060208083528351808285015260005b81811015610a5057858101830151858201604001528201610a34565b506000604082860101526040601f19601f8301168501019250505092915050565b80356001600160a01b0381168114610a8857600080fd5b919050565b60008060408385031215610aa057600080fd5b610aa983610a71565b946020939093013593505050565b600080600060608486031215610acc57600080fd5b610ad584610a71565b9250610ae360208501610a71565b9150604084013590509250925092565b600060208284031215610b0557600080fd5b5035919050565b600060208284031215610b1e57600080fd5b610b2782610a71565b9392505050565b60008060408385031215610b4157600080fd5b610b4a83610a71565b9150610b5860208401610a71565b90509250929050565b60008060408385031215610b7457600080fd5b82359150610b5860208401610a71565b600181811c90821680610b9857607f821691505b602082108103610bb857634e487b7160e01b600052602260045260246000fd5b50919050565b8082018082111561034c57634e487b7160e01b600052601160045260246000fdfea2646970667358221220fd55f8236519353e1ce2cc23304bbf4c0cec38615da8208d0655c41025bd2fd764736f6c63430008130033",
    "linkReferences": {}
  },
  "methodIdentifiers": {
    "ContractDeployer()": "55150d24",
    "NFTAddress()": "310c87cc",
    "NFTId()": "0fe550d1",
    "NFTOwner()": "bed1dbbe",
    "allowance(address,address)": "dd62ed3e",
    "approve(address,uint256)": "095ea7b3",
    "balanceOf(address)": "70a08231",
    "burn(uint256)": "42966c68",
    "burn(uint256,address)": "fcd3533c",
    "burnFrom(address,uint256)": "79cc6790",
    "decimals()": "313ce567",
    "decreaseAllowance(address,uint256)": "a457c2d7",
    "increaseAllowance(address,uint256)": "39509351",
    "name()": "06fdde03",
    "symbol()": "95d89b41",
    "totalSupply()": "18160ddd",
    "transfer(address,uint256)": "a9059cbb",
    "transferFrom(address,address,uint256)": "23b872dd"
  },
  "id": 36
}