{
  "abi": [
    {
      "inputs": [],
      "stateMutability": "nonpayable",
      "type": "constructor"
    },
    {
      "inputs": [
        {
          "internalType": "uint256",
          "name": "",
          "type": "uint256"
        }
      ],
      "name": "ForRentNFTIDS",
      "outputs": [
        {
          "internalType": "uint256",
          "name": "",
          "type": "uint256"
        }
      ],
      "stateMutability": "view",
      "type": "function"
    },
    {
      "inputs": [
        {
          "internalType": "uint256",
          "name": "",
          "type": "uint256"
        }
      ],
      "name": "ForSaleNFTIDs",
      "outputs": [
        {
          "internalType": "uint256",
          "name": "",
          "type": "uint256"
        }
      ],
      "stateMutability": "view",
      "type": "function"
    },
    {
      "inputs": [
        {
          "internalType": "address",
          "name": "_nftContractAddress",
          "type": "address"
        },
        {
          "internalType": "uint256",
          "name": "_nftId",
          "type": "uint256"
        }
      ],
      "name": "RetrievePropertyOnDefault",
      "outputs": [],
      "stateMutability": "nonpayable",
      "type": "function"
    },
    {
      "inputs": [
        {
          "internalType": "uint256",
          "name": "_amount",
          "type": "uint256"
        },
        {
          "internalType": "uint256",
          "name": "_nftID",
          "type": "uint256"
        },
        {
          "internalType": "address",
          "name": "_nftContractAddress",
          "type": "address"
        }
      ],
      "name": "buyPropertyInstallMent",
      "outputs": [],
      "stateMutability": "payable",
      "type": "function"
    },
    {
      "inputs": [
        {
          "internalType": "address",
          "name": "_nftContractAddress",
          "type": "address"
        },
        {
          "internalType": "uint256",
          "name": "_nftId",
          "type": "uint256"
        }
      ],
      "name": "claimPaymentOnProperty",
      "outputs": [],
      "stateMutability": "nonpayable",
      "type": "function"
    },
    {
      "inputs": [
        {
          "internalType": "address",
          "name": "_nftContractAddress",
          "type": "address"
        },
        {
          "internalType": "uint256",
          "name": "_nftId",
          "type": "uint256"
        }
      ],
      "name": "claimProperty",
      "outputs": [],
      "stateMutability": "nonpayable",
      "type": "function"
    },
    {
      "inputs": [
        {
          "internalType": "address",
          "name": "_nftContractAddress",
          "type": "address"
        },
        {
          "internalType": "uint256",
          "name": "_nftId",
          "type": "uint256"
        },
        {
          "internalType": "uint256",
          "name": "_supply",
          "type": "uint256"
        }
      ],
      "name": "createFraction",
      "outputs": [
        {
          "internalType": "address",
          "name": "",
          "type": "address"
        }
      ],
      "stateMutability": "nonpayable",
      "type": "function"
    },
    {
      "inputs": [
        {
          "internalType": "address",
          "name": "_nftContractAddress",
          "type": "address"
        },
        {
          "internalType": "uint256",
          "name": "_nftId",
          "type": "uint256"
        },
        {
          "internalType": "uint256",
          "name": "_status",
          "type": "uint256"
        },
        {
          "internalType": "uint256",
          "name": "_price",
          "type": "uint256"
        }
      ],
      "name": "depositPropertyNft",
      "outputs": [],
      "stateMutability": "nonpayable",
      "type": "function"
    },
    {
      "inputs": [
        {
          "internalType": "address",
          "name": "_nftContractAddress",
          "type": "address"
        },
        {
          "internalType": "uint256",
          "name": "_nftId",
          "type": "uint256"
        },
        {
          "internalType": "uint256",
          "name": "_status",
          "type": "uint256"
        }
      ],
      "name": "exitProperty",
      "outputs": [
        {
          "internalType": "uint256[]",
          "name": "",
          "type": "uint256[]"
        },
        {
          "internalType": "uint256[]",
          "name": "",
          "type": "uint256[]"
        }
      ],
      "stateMutability": "nonpayable",
      "type": "function"
    },
    {
      "inputs": [
        {
          "internalType": "address",
          "name": "",
          "type": "address"
        },
        {
          "internalType": "address",
          "name": "from",
          "type": "address"
        },
        {
          "internalType": "uint256",
          "name": "",
          "type": "uint256"
        },
        {
          "internalType": "bytes",
          "name": "",
          "type": "bytes"
        }
      ],
      "name": "onERC721Received",
      "outputs": [
        {
          "internalType": "bytes4",
          "name": "",
          "type": "bytes4"
        }
      ],
      "stateMutability": "pure",
      "type": "function"
    },
    {
      "inputs": [
        {
          "internalType": "address",
          "name": "_nftContractAddress",
          "type": "address"
        },
        {
          "internalType": "uint256",
          "name": "_nftId",
          "type": "uint256"
        }
      ],
      "name": "reclaimAmountPaid",
      "outputs": [],
      "stateMutability": "nonpayable",
      "type": "function"
    }
  ],
  "bytecode": {
    "object": "0x608060405234801561001057600080fd5b50613dea806100206000396000f3fe608060405260043610620000a95760003560e01c80637e8889e4116200006c5780637e8889e414620001ab57806387f5b6c614620001d0578063a2c8adc01462000205578063ac32f7c0146200021c578063c47766e61462000241578063df17c942146200027557600080fd5b80630b1e0fd314620000ae57806314958d4f14620000d5578063150b7a02146200011757806356273ba414620001615780637c9190261462000186575b600080fd5b348015620000bb57600080fd5b50620000d3620000cd3660046200295b565b6200029a565b005b348015620000e257600080fd5b50620000fa620000f436600462002988565b62000aa7565b6040516001600160a01b0390911681526020015b60405180910390f35b3480156200012457600080fd5b506200014762000136366004620029be565b630a85bd0160e11b95945050505050565b6040516001600160e01b031990911681526020016200010e565b3480156200016e57600080fd5b50620000d36200018036600462002a62565b62000c8f565b3480156200019357600080fd5b50620000d3620001a53660046200295b565b6200102a565b348015620001b857600080fd5b50620000d3620001ca3660046200295b565b620011fa565b348015620001dd57600080fd5b50620001f5620001ef36600462002988565b62001567565b6040516200010e92919062002adb565b620000d36200021636600462002b0d565b62001e90565b3480156200022957600080fd5b50620000d36200023b3660046200295b565b6200253a565b3480156200024e57600080fd5b50620002666200026036600462002b45565b62002896565b6040519081526020016200010e565b3480156200028257600080fd5b50620002666200029436600462002b45565b620028b8565b6001600160a01b03821660009081526003602090815260408083208484529091528120548154909190819083908110620002d857620002d862002b5f565b6000918252602082206004600a90920201015481546001600160a01b039091169250839081106200030d576200030d62002b5f565b60009182526020909120600a90910201546001600160a01b03163314620003705760405162461bcd60e51b81526020600482015260126024820152712727aa10282927a822a92a2c9027aba722a960711b60448201526064015b60405180910390fd5b60006001600160a01b03166000838154811062000391576200039162002b5f565b60009182526020909120600a909102016007015461010090046001600160a01b031603620003f75760405162461bcd60e51b8152602060048201526012602482015271627579696e6720696e2070726f677265737360701b604482015260640162000367565b600082815481106200040d576200040d62002b5f565b90600052602060002090600a0201600301546276a7006200042f919062002b8b565b421015620004725760405162461bcd60e51b815260206004820152600f60248201526e1393d5081156141254915108165155608a1b604482015260640162000367565b6000828154811062000488576200048862002b5f565b600091825260209091206009600a90920201015460ff1615620004de5760405162461bcd60e51b815260206004820152600d60248201526c141c9bdc195c9d1e4814dbdb19609a1b604482015260640162000367565b806001600160a01b03166318160ddd6040518163ffffffff1660e01b8152600401602060405180830381865afa1580156200051d573d6000803e3d6000fd5b505050506040513d601f19601f8201168201806040525081019062000543919062002ba7565b816001600160a01b03166370a082316000858154811062000568576200056862002b5f565b60009182526020909120600a909102016007015460405160e083901b6001600160e01b03191681526101009091046001600160a01b03166004820152602401602060405180830381865afa158015620005c5573d6000803e3d6000fd5b505050506040513d601f19601f82011682018060405250810190620005eb919062002ba7565b036200062e5760405162461bcd60e51b81526020600482015260116024820152701c185e5b595b9d0818dbdb5c1b195d1959607a1b604482015260640162000367565b806001600160a01b03166323b872dd6000848154811062000653576200065362002b5f565b90600052602060002090600a020160070160019054906101000a90046001600160a01b031633846001600160a01b03166370a08231600088815481106200069e576200069e62002b5f565b60009182526020909120600a909102016007015460405160e083901b6001600160e01b03191681526101009091046001600160a01b03166004820152602401602060405180830381865afa158015620006fb573d6000803e3d6000fd5b505050506040513d601f19601f8201168201806040525081019062000721919062002ba7565b6040518463ffffffff1660e01b8152600401620007419392919062002bc1565b6020604051808303816000875af115801562000761573d6000803e3d6000fd5b505050506040513d601f19601f8201168201806040525081019062000787919062002be5565b506000606460008481548110620007a257620007a262002b5f565b90600052602060002090600a0201600801546046620007c2919062002c10565b620007ce919062002c2a565b90506000606460008581548110620007ea57620007ea62002b5f565b90600052602060002090600a02016008015460146200080a919062002c10565b62000816919062002c2a565b9050600060646000868154811062000832576200083262002b5f565b90600052602060002090600a020160080154600a62000852919062002c10565b6200085e919062002c2a565b9050806005600082825462000874919062002b8b565b9091555050600080548690811062000890576200089062002b5f565b90600052602060002090600a020160070160019054906101000a90046001600160a01b031660046000808881548110620008ce57620008ce62002b5f565b60009182526020808320600a929092029091016007015461010090046001600160a01b03908116845283820194909452604092830182208c85168352905290812080546001600160a01b031916939092169290921790558054849160049181908990811062000941576200094162002b5f565b600091825260208083206007600a9093020191909101546001600160a01b03610100909104811684528382019490945260409283018220938c168252929092528120600101919091558054819087908110620009a157620009a162002b5f565b90600052602060002090600a0201600801819055506000808681548110620009cd57620009cd62002b5f565b600091825260208220600a90910201546040516001600160a01b039091169185919081818185875af1925050503d806000811462000a28576040519150601f19603f3d011682016040523d82523d6000602084013e62000a2d565b606091505b505090508062000a515760405162461bcd60e51b8152600401620003679062002c4d565b600080878154811062000a685762000a6862002b5f565b90600052602060002090600a020160070160016101000a8154816001600160a01b0302191690836001600160a01b031602179055505050505050505050565b6001600160a01b03831660009081526003602090815260408083208584529091528120548154339083908390811062000ae45762000ae462002b5f565b60009182526020909120600a90910201546001600160a01b03161462000b5e5760405162461bcd60e51b815260206004820152602860248201527f4f6e6c7920746865206f776e6572206f662074686973204e46542063616e206160448201526718d8d95cdcc81a5d60c21b606482015260840162000367565b60016000828154811062000b765762000b7662002b5f565b90600052602060002090600a020160070160006101000a81548160ff0219169083151502179055506000858533863060405162000bb390620028c9565b6001600160a01b03958616815260208101949094529184166040840152606083015260e0608083018190526007908301526626bcaa37b5b2b760c91b61010083015261012060a08301819052600390830152621b5e5d60ea1b61014083015290911660c082015261016001604051809103906000f08015801562000c3b573d6000803e3d6000fd5b509050806000838154811062000c555762000c5562002b5f565b60009182526020909120600a9091020160040180546001600160a01b0319166001600160a01b039290921691909117905595945050505050565b8382158062000c9e5750826001145b62000cdd5760405162461bcd60e51b815260206004820152600e60248201526d34b73b30b634b21037b83a34b7b760911b604482015260640162000367565b604051632142170760e11b81526001600160a01b038216906342842e0e9062000d0f9033903090899060040162002bc1565b600060405180830381600087803b15801562000d2a57600080fd5b505af115801562000d3f573d6000803e3d6000fd5b5050505062000db2604080516101a0810182526000808252602082018190529091820190815260006020820181905260408201819052606082018190526080820181905260a0820181905260c0820181905260e08201819052610100820181905261012082018190526101409091015290565b3381526001600160a01b0386166020820152606081018590526000610100820181905284900362000e175760006040820181905260018054808201825591527fb10e2d527612073b26eecdfd717e6a320cf44b4afac2b0732d9fcbe2b7fa0cf6018590555b8360010362000e5b576001604082018190526002805491820181556000527f405787fa12a823e0f2b7631cc41b3ba8828b3321ca811111fa75cd3aa3bb5ace018590555b60c08101839052600080546001808201835591805282517f290decd9548b62a8d60345a988386fc84ba6bc95484008f6362f93160ef3e563600a90920291820180546001600160a01b03199081166001600160a01b0393841617825560208601517f290decd9548b62a8d60345a988386fc84ba6bc95484008f6362f93160ef3e56490940180549182169490931693841783556040860151869592949093926001600160a81b03199092161790600160a01b90849081111562000f225762000f2262002c7b565b0217905550606082015160028201556080820151600382015560a08201516004820180546001600160a01b0319166001600160a01b0392831617905560c0830151600583015560e08301516006830155610100808401516007840180546101208701516001600160a81b0319909116921515610100600160a81b03191692909217919093168202179091556101408301516008830155610160830151600990920180546101809094015161ffff1990941692151561ff001916929092179215150291909117905560005462000ffa9060019062002c91565b6001600160a01b039096166000908152600360209081526040808320978352969052949094209490945550505050565b6001600160a01b0380831660008181526003602090815260408083208684528252808320543380855260048452828520958552949092529091205490921614620010a95760405162461bcd60e51b815260206004820152600f60248201526e2737ba1030903232b330bab63a32b960891b604482015260640162000367565b60008181548110620010bf57620010bf62002b5f565b90600052602060002090600a0201600301546276a700620010e1919062002b8b565b4210620011bc573360009081526004602090815260408083206001600160a01b0387168452909152812060010154815490919081908490811062001129576200112962002b5f565b600091825260208220600a9190910201600701546040516101009091046001600160a01b03169184919081818185875af1925050503d80600081146200118c576040519150601f19603f3d011682016040523d82523d6000602084013e62001191565b606091505b5050905080620011b55760405162461bcd60e51b8152600401620003679062002c4d565b5050505050565b60405162461bcd60e51b815260206004820152601260248201527118d85b9b9bdd081c9958db185a5b481e595d60721b604482015260640162000367565b6001600160a01b0382166000908152600360209081526040808320848452909152812054815490919081908390811062001238576200123862002b5f565b6000918252602082206004600a90920201015481546001600160a01b0390911692503391908490811062001270576200127062002b5f565b60009182526020909120600a90910201546001600160a01b031614620012c55760405162461bcd60e51b81526020600482015260096024820152683737ba1037bbb732b960b91b604482015260640162000367565b806001600160a01b03166318160ddd6040518163ffffffff1660e01b8152600401602060405180830381865afa15801562001304573d6000803e3d6000fd5b505050506040513d601f19601f820116820180604052508101906200132a919062002ba7565b816001600160a01b03166370a08231600085815481106200134f576200134f62002b5f565b60009182526020909120600a909102016007015460405160e083901b6001600160e01b03191681526101009091046001600160a01b03166004820152602401602060405180830381865afa158015620013ac573d6000803e3d6000fd5b505050506040513d601f19601f82011682018060405250810190620013d2919062002ba7565b14620014185760405162461bcd60e51b81526020600482015260146024820152737061796d656e74206e6f7420636f6d706c65746560601b604482015260640162000367565b600060646000848154811062001432576200143262002b5f565b90600052602060002090600a020160080154605062001452919062002c10565b6200145e919062002c2a565b905060006064600085815481106200147a576200147a62002b5f565b90600052602060002090600a02016008015460146200149a919062002c10565b620014a6919062002c2a565b90508060066000828254620014bc919062002b8b565b925050819055506000808581548110620014da57620014da62002b5f565b600091825260208220600a90910201546040516001600160a01b039091169185919081818185875af1925050503d806000811462001535576040519150601f19603f3d011682016040523d82523d6000602084013e6200153a565b606091505b50509050806200155e5760405162461bcd60e51b8152600401620003679062002c4d565b50505050505050565b6001600160a01b03831660009081526003602090815260408083208584529091528120548154606092839291879190819084908110620015ab57620015ab62002b5f565b600091825260209091206004600a9092020101546001600160a01b03169050851580620015d85750856001145b620016175760405162461bcd60e51b815260206004820152600e60248201526d34b73b30b634b21037b83a34b7b760911b604482015260640162000367565b85600003620016aa57600080848154811062001637576200163762002b5f565b90600052602060002090600a020160010160149054906101000a900460ff1660018111156200166a576200166a62002c7b565b14620016aa5760405162461bcd60e51b815260206004820152600e60248201526d696e76616c69642073746174757360901b604482015260640162000367565b856001036200173e57600160008481548110620016cb57620016cb62002b5f565b90600052602060002090600a020160010160149054906101000a900460ff166001811115620016fe57620016fe62002c7b565b146200173e5760405162461bcd60e51b815260206004820152600e60248201526d696e76616c69642073746174757360901b604482015260640162000367565b60006001600160a01b0316600084815481106200175f576200175f62002b5f565b60009182526020909120600a909102016007015461010090046001600160a01b031614620017c55760405162461bcd60e51b8152602060048201526012602482015271627579696e6720696e2070726f677265737360701b604482015260640162000367565b6000878152600760205260409020600101546001600160a01b031615620018235760405162461bcd60e51b8152602060048201526011602482015270185c185c9d1b595b9d081a5b881c995b9d607a1b604482015260640162000367565b336001600160a01b03166000848154811062001843576200184362002b5f565b60009182526020909120600a90910201546001600160a01b031614620018985760405162461bcd60e51b81526020600482015260096024820152683737ba1037bbb732b960b91b604482015260640162000367565b604051632142170760e11b81526001600160a01b038316906342842e0e90620018ca90309033908c9060040162002bc1565b600060405180830381600087803b158015620018e557600080fd5b505af1158015620018fa573d6000803e3d6000fd5b50506040516370a0823160e01b81523360048201526001600160a01b038416925063fcd3533c915082906370a0823190602401602060405180830381865afa1580156200194b573d6000803e3d6000fd5b505050506040513d601f19601f8201168201806040525081019062001971919062002ba7565b6040516001600160e01b031960e084901b1681526004810191909152336024820152604401600060405180830381600087803b158015620019b157600080fd5b505af1158015620019c6573d6000803e3d6000fd5b5060009250620019d4915050565b60008481548110620019ea57620019ea62002b5f565b90600052602060002090600a020160010160149054906101000a900460ff16600181111562001a1d5762001a1d62002c7b565b0362001bd657600180549081900362001a6057600180548062001a445762001a4462002ca7565b6001900381819060005260206000200160009055905562001bd4565b60008167ffffffffffffffff81111562001a7e5762001a7e62002cbd565b60405190808252806020026020018201604052801562001aa8578160200160208202803683370190505b50600180546040805160208084028201810190925282815293945083018282801562001af457602002820191906000526020600020905b81548152602001906001019080831162001adf575b5050505050905060005b8281101562001ba7578982828151811062001b1d5762001b1d62002b5f565b60200260200101510362001b9257816001835162001b3c919062002c91565b8151811062001b4f5762001b4f62002b5f565b602002602001015182828151811062001b6c5762001b6c62002b5f565b602002602001018181525050816001908051906020019062001b90929190620028d7565b505b8062001b9e8162002cd3565b91505062001afe565b50600180548062001bbc5762001bbc62002ca7565b60019003818190600052602060002001600090559055505b505b60016000848154811062001bee5762001bee62002b5f565b90600052602060002090600a020160010160149054906101000a900460ff16600181111562001c215762001c2162002c7b565b0362001dd557600180549081900362001c5f57600280548062001c485762001c4862002ca7565b600190038181906000526020600020016000905590555b60008167ffffffffffffffff81111562001c7d5762001c7d62002cbd565b60405190808252806020026020018201604052801562001ca7578160200160208202803683370190505b50600280546040805160208084028201810190925282815293945083018282801562001cf357602002820191906000526020600020905b81548152602001906001019080831162001cde575b5050505050905060005b8281101562001dd1578982828151811062001d1c5762001d1c62002b5f565b60200260200101510362001d9157816001835162001d3b919062002c91565b8151811062001d4e5762001d4e62002b5f565b602002602001015182828151811062001d6b5762001d6b62002b5f565b602002602001018181525050816002908051906020019062001d8f929190620028d7565b505b600280548062001da55762001da562002ca7565b60019003818190600052602060002001600090559055808062001dc89062002cd3565b91505062001cfd565b5050505b600160028180548060200260200160405190810160405280929190818152602001828054801562001e2657602002820191906000526020600020905b81548152602001906001019080831162001e11575b505050505091508080548060200260200160405190810160405280929190818152602001828054801562001e7a57602002820191906000526020600020905b81548152602001906001019080831162001e65575b5050505050905094509450505050935093915050565b600062001ea384642e90edd00062002c10565b6001600160a01b038316600090815260036020908152604080832087845290915281205481549293509181908390811062001ee25762001ee262002b5f565b6000918252602082206004600a90920201015481546001600160a01b03909116925081908490811062001f195762001f1962002b5f565b60009182526020909120600a909102016007015461010090046001600160a01b0316148062001f875750336001600160a01b03166000838154811062001f635762001f6362002b5f565b60009182526020909120600a909102016007015461010090046001600160a01b0316145b62001fc55760405162461bcd60e51b815260206004820152600d60248201526c4e6f7420617661696c61626c6560981b604482015260640162000367565b600080838154811062001fdc5762001fdc62002b5f565b90600052602060002090600a020160010160149054906101000a900460ff1660018111156200200f576200200f62002c7b565b146200204e5760405162461bcd60e51b815260206004820152600d60248201526c666f722073616c65206f6e6c7960981b604482015260640162000367565b823414620020905760405162461bcd60e51b815260206004820152600e60248201526d0dcdee840cadcdeeaced040cae8d60931b604482015260640162000367565b806001600160a01b03166318160ddd6040518163ffffffff1660e01b8152600401602060405180830381865afa158015620020cf573d6000803e3d6000fd5b505050506040513d601f19601f82011682018060405250810190620020f5919062002ba7565b8611156200210257600080fd5b6000828154811062002118576200211862002b5f565b600091825260209091206007600a90920201015460ff16620021695760405162461bcd60e51b8152602060048201526009602482015268273790313abcb7b33360b91b604482015260640162000367565b600082815481106200217f576200217f62002b5f565b600091825260209091206009600a90920201015460ff1615620021d55760405162461bcd60e51b815260206004820152600d60248201526c1c1c9bdc195c9d1e4814dbdb19609a1b604482015260640162000367565b60008281548110620021eb57620021eb62002b5f565b90600052602060002090600a0201600301546276a7006200220d919062002b8b565b42106200224f5760405162461bcd60e51b815260206004820152600f60248201526e1d1a5b59481a185cc81c185cdcd959608a1b604482015260640162000367565b336001600160a01b0316600083815481106200226f576200226f62002b5f565b60009182526020909120600a909102016007015461010090046001600160a01b0316036200238357806001600160a01b03166323b872dd60008481548110620022bc57620022bc62002b5f565b60009182526020909120600a90910201546040516001600160e01b031960e084901b168152620022fd916001600160a01b03169033908b9060040162002bc1565b6020604051808303816000875af11580156200231d573d6000803e3d6000fd5b505050506040513d601f19601f8201168201806040525081019062002343919062002be5565b5082600083815481106200235b576200235b62002b5f565b90600052602060002090600a020160080160008282546200237d919062002b8b565b90915550505b60006001600160a01b031660008381548110620023a457620023a462002b5f565b60009182526020909120600a909102016007015461010090046001600160a01b0316036200253257806001600160a01b03166323b872dd60008481548110620023f157620023f162002b5f565b60009182526020909120600a90910201546040516001600160e01b031960e084901b16815262002432916001600160a01b03169033908b9060040162002bc1565b6020604051808303816000875af115801562002452573d6000803e3d6000fd5b505050506040513d601f19601f8201168201806040525081019062002478919062002be5565b50336000838154811062002490576200249062002b5f565b90600052602060002090600a020160070160016101000a8154816001600160a01b0302191690836001600160a01b031602179055508260008381548110620024dc57620024dc62002b5f565b90600052602060002090600a02016008016000828254620024fe919062002b8b565b9250508190555042600083815481106200251c576200251c62002b5f565b90600052602060002090600a0201600301819055505b505050505050565b6001600160a01b0382166000908152600360209081526040808320848452909152812054815490919081908390811062002578576200257862002b5f565b6000918252602082206004600a90920201015481546001600160a01b0390911692508591339185908110620025b157620025b162002b5f565b60009182526020909120600a909102016007015461010090046001600160a01b0316146200260e5760405162461bcd60e51b81526020600482015260096024820152683737ba10313abcb2b960b91b604482015260640162000367565b816001600160a01b03166318160ddd6040518163ffffffff1660e01b8152600401602060405180830381865afa1580156200264d573d6000803e3d6000fd5b505050506040513d601f19601f8201168201806040525081019062002673919062002ba7565b6040516370a0823160e01b81523360048201526001600160a01b038416906370a0823190602401602060405180830381865afa158015620026b8573d6000803e3d6000fd5b505050506040513d601f19601f82011682018060405250810190620026de919062002ba7565b14620027235760405162461bcd60e51b81526020600482015260136024820152727061796d656e74206f75747374616e64696e6760681b604482015260640162000367565b6001600084815481106200273b576200273b62002b5f565b60009182526020909120600a90910201600901805460ff1916911515919091179055604051632142170760e11b81526001600160a01b038216906342842e0e906200278f9030903390899060040162002bc1565b600060405180830381600087803b158015620027aa57600080fd5b505af1158015620027bf573d6000803e3d6000fd5b50506040516370a0823160e01b81523360048201526001600160a01b038516925063fcd3533c915082906370a0823190602401602060405180830381865afa15801562002810573d6000803e3d6000fd5b505050506040513d601f19601f8201168201806040525081019062002836919062002ba7565b6040516001600160e01b031960e084901b1681526004810191909152336024820152604401600060405180830381600087803b1580156200287657600080fd5b505af11580156200288b573d6000803e3d6000fd5b505050505050505050565b60028181548110620028a757600080fd5b600091825260209091200154905081565b60018181548110620028a757600080fd5b6110c58062002cf083390190565b82805482825590600052602060002090810192821562002915579160200282015b8281111562002915578251825591602001919060010190620028f8565b506200292392915062002927565b5090565b5b8082111562002923576000815560010162002928565b80356001600160a01b03811681146200295657600080fd5b919050565b600080604083850312156200296f57600080fd5b6200297a836200293e565b946020939093013593505050565b6000806000606084860312156200299e57600080fd5b620029a9846200293e565b95602085013595506040909401359392505050565b600080600080600060808688031215620029d757600080fd5b620029e2866200293e565b9450620029f2602087016200293e565b935060408601359250606086013567ffffffffffffffff8082111562002a1757600080fd5b818801915088601f83011262002a2c57600080fd5b81358181111562002a3c57600080fd5b89602082850101111562002a4f57600080fd5b9699959850939650602001949392505050565b6000806000806080858703121562002a7957600080fd5b62002a84856200293e565b966020860135965060408601359560600135945092505050565b600081518084526020808501945080840160005b8381101562002ad05781518752958201959082019060010162002ab2565b509495945050505050565b60408152600062002af0604083018562002a9e565b828103602084015262002b04818562002a9e565b95945050505050565b60008060006060848603121562002b2357600080fd5b833592506020840135915062002b3c604085016200293e565b90509250925092565b60006020828403121562002b5857600080fd5b5035919050565b634e487b7160e01b600052603260045260246000fd5b634e487b7160e01b600052601160045260246000fd5b8082018082111562002ba15762002ba162002b75565b92915050565b60006020828403121562002bba57600080fd5b5051919050565b6001600160a01b039384168152919092166020820152604081019190915260600190565b60006020828403121562002bf857600080fd5b8151801515811462002c0957600080fd5b9392505050565b808202811582820484141762002ba15762002ba162002b75565b60008262002c4857634e487b7160e01b600052601260045260246000fd5b500490565b6020808252601490820152732330b4b632b2103a379039b2b7321022ba3432b960611b604082015260600190565b634e487b7160e01b600052602160045260246000fd5b8181038181111562002ba15762002ba162002b75565b634e487b7160e01b600052603160045260246000fd5b634e487b7160e01b600052604160045260246000fd5b60006001820162002ce85762002ce862002b75565b506001019056fe60806040523480156200001157600080fd5b50604051620010c5380380620010c5833981016040819052620000349162000268565b82826003620000448382620003ac565b506004620000538282620003ac565b5050600580546001600160a01b03808b166001600160a01b03199283161790925560068990556007805489841690831617905560088054821633179055600b80549285169290911691909117905550620000ae8585620000bb565b50505050505050620004a0565b6001600160a01b038216620001165760405162461bcd60e51b815260206004820152601f60248201527f45524332303a206d696e7420746f20746865207a65726f206164647265737300604482015260640160405180910390fd5b80600260008282546200012a919062000478565b90915550506001600160a01b038216600081815260208181526040808320805486019055518481527fddf252ad1be2c89b69c2b068fc378daa952ba7f163c4a11628f55a4df523b3ef910160405180910390a35050565b505050565b80516001600160a01b03811681146200019e57600080fd5b919050565b634e487b7160e01b600052604160045260246000fd5b600082601f830112620001cb57600080fd5b81516001600160401b0380821115620001e857620001e8620001a3565b604051601f8301601f19908116603f01168101908282118183101715620002135762000213620001a3565b816040528381526020925086838588010111156200023057600080fd5b600091505b8382101562000254578582018301518183018401529082019062000235565b600093810190920192909252949350505050565b600080600080600080600060e0888a0312156200028457600080fd5b6200028f8862000186565b965060208801519550620002a66040890162000186565b606089015160808a015191965094506001600160401b0380821115620002cb57600080fd5b620002d98b838c01620001b9565b945060a08a0151915080821115620002f057600080fd5b50620002ff8a828b01620001b9565b9250506200031060c0890162000186565b905092959891949750929550565b600181811c908216806200033357607f821691505b6020821081036200035457634e487b7160e01b600052602260045260246000fd5b50919050565b601f8211156200018157600081815260208120601f850160051c81016020861015620003835750805b601f850160051c820191505b81811015620003a4578281556001016200038f565b505050505050565b81516001600160401b03811115620003c857620003c8620001a3565b620003e081620003d984546200031e565b846200035a565b602080601f831160018114620004185760008415620003ff5750858301515b600019600386901b1c1916600185901b178555620003a4565b600085815260208120601f198616915b82811015620004495788860151825594840194600190910190840162000428565b5085821015620004685787850151600019600388901b60f8161c191681555b5050505050600190811b01905550565b808201808211156200049a57634e487b7160e01b600052601160045260246000fd5b92915050565b610c1580620004b06000396000f3fe608060405234801561001057600080fd5b50600436106101165760003560e01c806355150d24116100a2578063a457c2d711610071578063a457c2d714610247578063a9059cbb1461025a578063bed1dbbe1461026d578063dd62ed3e14610280578063fcd3533c1461029357600080fd5b806355150d24146101f057806370a082311461020357806379cc67901461022c57806395d89b411461023f57600080fd5b806323b872dd116100e957806323b872dd1461017b578063310c87cc1461018e578063313ce567146101b957806339509351146101c857806342966c68146101db57600080fd5b806306fdde031461011b578063095ea7b3146101395780630fe550d11461015c57806318160ddd14610173575b600080fd5b6101236102a6565b6040516101309190610a23565b60405180910390f35b61014c610147366004610a8d565b610338565b6040519015158152602001610130565b61016560065481565b604051908152602001610130565b600254610165565b61014c610189366004610ab7565b610352565b6005546101a1906001600160a01b031681565b6040516001600160a01b039091168152602001610130565b60405160128152602001610130565b61014c6101d6366004610a8d565b6103fe565b6101ee6101e9366004610af3565b610420565b005b6008546101a1906001600160a01b031681565b610165610211366004610b0c565b6001600160a01b031660009081526020819052604090205490565b6101ee61023a366004610a8d565b61042d565b610123610446565b61014c610255366004610a8d565b610455565b61014c610268366004610a8d565b6104d0565b6007546101a1906001600160a01b031681565b61016561028e366004610b2e565b610536565b6101ee6102a1366004610b61565b610561565b6060600380546102b590610b84565b80601f01602080910402602001604051908101604052809291908181526020018280546102e190610b84565b801561032e5780601f106103035761010080835404028352916020019161032e565b820191906000526020600020905b81548152906001019060200180831161031157829003601f168201915b5050505050905090565b6000336103468185856105b6565b60019150505b92915050565b600061035d60025490565b6001600160a01b0384811660009081526020819052604080822054928816825290205461038a9190610bbe565b146103dc5760405162461bcd60e51b815260206004820152601760248201527f63616e6e6f7420757365207472616e7366657266726f6d00000000000000000060448201526064015b60405180910390fd5b336103e88582856106db565b6103f3858585610755565b506001949350505050565b6000336103468185856104118383610536565b61041b9190610bbe565b6105b6565b61042a33826108f9565b50565b6104388233836106db565b61044282826108f9565b5050565b6060600480546102b590610b84565b600033816104638286610536565b9050838110156104c35760405162461bcd60e51b815260206004820152602560248201527f45524332303a2064656372656173656420616c6c6f77616e63652062656c6f77604482015264207a65726f60d81b60648201526084016103d3565b6103f382868684036105b6565b60006104db60025490565b336000908152602081905260409020541461052a5760405162461bcd60e51b815260206004820152600f60248201526e31b0b73737ba103a3930b739b332b960891b60448201526064016103d3565b33610346818585610755565b6001600160a01b03918216600090815260016020908152604080832093909416825291909152205490565b600b546001600160a01b031633146105ac5760405162461bcd60e51b815260206004820152600e60248201526d1b9bdd08185d5d1a1bdc9a5e995960921b60448201526064016103d3565b61044281836108f9565b6001600160a01b0383166106185760405162461bcd60e51b8152602060048201526024808201527f45524332303a20617070726f76652066726f6d20746865207a65726f206164646044820152637265737360e01b60648201526084016103d3565b6001600160a01b0382166106795760405162461bcd60e51b815260206004820152602260248201527f45524332303a20617070726f766520746f20746865207a65726f206164647265604482015261737360f01b60648201526084016103d3565b6001600160a01b0383811660008181526001602090815260408083209487168084529482529182902085905590518481527f8c5be1e5ebec7d5bd14f71427d1e84f3dd0314c0f7b2291e5b200ac8c7c3b92591015b60405180910390a3505050565b60006106e78484610536565b9050600019811461074f57818110156107425760405162461bcd60e51b815260206004820152601d60248201527f45524332303a20696e73756666696369656e7420616c6c6f77616e636500000060448201526064016103d3565b61074f84848484036105b6565b50505050565b6001600160a01b0383166107b95760405162461bcd60e51b815260206004820152602560248201527f45524332303a207472616e736665722066726f6d20746865207a65726f206164604482015264647265737360d81b60648201526084016103d3565b6001600160a01b03821661081b5760405162461bcd60e51b815260206004820152602360248201527f45524332303a207472616e7366657220746f20746865207a65726f206164647260448201526265737360e81b60648201526084016103d3565b6001600160a01b038316600090815260208190526040902054818110156108935760405162461bcd60e51b815260206004820152602660248201527f45524332303a207472616e7366657220616d6f756e7420657863656564732062604482015265616c616e636560d01b60648201526084016103d3565b6001600160a01b03848116600081815260208181526040808320878703905593871680835291849020805487019055925185815290927fddf252ad1be2c89b69c2b068fc378daa952ba7f163c4a11628f55a4df523b3ef910160405180910390a361074f565b6001600160a01b0382166109595760405162461bcd60e51b815260206004820152602160248201527f45524332303a206275726e2066726f6d20746865207a65726f206164647265736044820152607360f81b60648201526084016103d3565b6001600160a01b038216600090815260208190526040902054818110156109cd5760405162461bcd60e51b815260206004820152602260248201527f45524332303a206275726e20616d6f756e7420657863656564732062616c616e604482015261636560f01b60648201526084016103d3565b6001600160a01b0383166000818152602081815260408083208686039055600280548790039055518581529192917fddf252ad1be2c89b69c2b068fc378daa952ba7f163c4a11628f55a4df523b3ef91016106ce565b600060208083528351808285015260005b81811015610a5057858101830151858201604001528201610a34565b506000604082860101526040601f19601f8301168501019250505092915050565b80356001600160a01b0381168114610a8857600080fd5b919050565b60008060408385031215610aa057600080fd5b610aa983610a71565b946020939093013593505050565b600080600060608486031215610acc57600080fd5b610ad584610a71565b9250610ae360208501610a71565b9150604084013590509250925092565b600060208284031215610b0557600080fd5b5035919050565b600060208284031215610b1e57600080fd5b610b2782610a71565b9392505050565b60008060408385031215610b4157600080fd5b610b4a83610a71565b9150610b5860208401610a71565b90509250929050565b60008060408385031215610b7457600080fd5b82359150610b5860208401610a71565b600181811c90821680610b9857607f821691505b602082108103610bb857634e487b7160e01b600052602260045260246000fd5b50919050565b8082018082111561034c57634e487b7160e01b600052601160045260246000fdfea2646970667358221220673ef7f7f4397ca17d8598d7556345b9c59fb74b4d954c87e23e98336c67244364736f6c63430008110033a2646970667358221220f668493a0a63c34858eb7f068aa67a9453188e3d8a159c2a0422cd5eb064ac5c64736f6c63430008110033",
    "linkReferences": {}
  },
  "methodIdentifiers": {
    "ForRentNFTIDS(uint256)": "c47766e6",
    "ForSaleNFTIDs(uint256)": "df17c942",
    "RetrievePropertyOnDefault(address,uint256)": "0b1e0fd3",
    "buyPropertyInstallMent(uint256,uint256,address)": "a2c8adc0",
    "claimPaymentOnProperty(address,uint256)": "7e8889e4",
    "claimProperty(address,uint256)": "ac32f7c0",
    "createFraction(address,uint256,uint256)": "14958d4f",
    "depositPropertyNft(address,uint256,uint256,uint256)": "56273ba4",
    "exitProperty(address,uint256,uint256)": "87f5b6c6",
    "onERC721Received(address,address,uint256,bytes)": "150b7a02",
    "reclaimAmountPaid(address,uint256)": "7c919026"
  },
  "id": 38
}