{
  "abi": [
    {
      "inputs": [],
      "stateMutability": "nonpayable",
      "type": "constructor"
    },
    {
      "inputs": [
        {
          "internalType": "uint256",
          "name": "",
          "type": "uint256"
        }
      ],
      "name": "ForRentNFTIDS",
      "outputs": [
        {
          "internalType": "uint256",
          "name": "",
          "type": "uint256"
        }
      ],
      "stateMutability": "view",
      "type": "function"
    },
    {
      "inputs": [
        {
          "internalType": "uint256",
          "name": "",
          "type": "uint256"
        }
      ],
      "name": "ForSaleNFTIDs",
      "outputs": [
        {
          "internalType": "uint256",
          "name": "",
          "type": "uint256"
        }
      ],
      "stateMutability": "view",
      "type": "function"
    },
    {
      "inputs": [
        {
          "internalType": "uint256",
          "name": "_nftID",
          "type": "uint256"
        },
        {
          "internalType": "address",
          "name": "_nftContractAddress",
          "type": "address"
        }
      ],
      "name": "RentProperty",
      "outputs": [],
      "stateMutability": "payable",
      "type": "function"
    },
    {
      "inputs": [
        {
          "internalType": "address",
          "name": "_nftContractAddress",
          "type": "address"
        },
        {
          "internalType": "uint256",
          "name": "_nftId",
          "type": "uint256"
        }
      ],
      "name": "RetrievePropertyOnDefault",
      "outputs": [],
      "stateMutability": "nonpayable",
      "type": "function"
    },
    {
      "inputs": [
        {
          "internalType": "uint256",
          "name": "_amount",
          "type": "uint256"
        },
        {
          "internalType": "uint256",
          "name": "_nftID",
          "type": "uint256"
        },
        {
          "internalType": "address",
          "name": "_nftContractAddress",
          "type": "address"
        }
      ],
      "name": "buyPropertyInstallMent",
      "outputs": [],
      "stateMutability": "payable",
      "type": "function"
    },
    {
      "inputs": [
        {
          "internalType": "address",
          "name": "_nftContractAddress",
          "type": "address"
        },
        {
          "internalType": "uint256",
          "name": "_nftId",
          "type": "uint256"
        }
      ],
      "name": "claimPaymentOnProperty",
      "outputs": [],
      "stateMutability": "nonpayable",
      "type": "function"
    },
    {
      "inputs": [
        {
          "internalType": "address",
          "name": "_nftContractAddress",
          "type": "address"
        },
        {
          "internalType": "uint256",
          "name": "_nftId",
          "type": "uint256"
        }
      ],
      "name": "claimProperty",
      "outputs": [],
      "stateMutability": "nonpayable",
      "type": "function"
    },
    {
      "inputs": [
        {
          "internalType": "address",
          "name": "_nftContractAddress",
          "type": "address"
        },
        {
          "internalType": "uint256",
          "name": "_nftId",
          "type": "uint256"
        },
        {
          "internalType": "uint256",
          "name": "_supply",
          "type": "uint256"
        }
      ],
      "name": "createFraction",
      "outputs": [
        {
          "internalType": "address",
          "name": "",
          "type": "address"
        }
      ],
      "stateMutability": "nonpayable",
      "type": "function"
    },
    {
      "inputs": [
        {
          "internalType": "address",
          "name": "_nftContractAddress",
          "type": "address"
        },
        {
          "internalType": "uint256",
          "name": "_nftId",
          "type": "uint256"
        },
        {
          "internalType": "uint256",
          "name": "_status",
          "type": "uint256"
        },
        {
          "internalType": "uint256",
          "name": "_price",
          "type": "uint256"
        }
      ],
      "name": "depositPropertyNft",
      "outputs": [],
      "stateMutability": "nonpayable",
      "type": "function"
    },
    {
      "inputs": [
        {
          "internalType": "address",
          "name": "_nftContractAddress",
          "type": "address"
        },
        {
          "internalType": "uint256",
          "name": "_nftId",
          "type": "uint256"
        },
        {
          "internalType": "uint256",
          "name": "_status",
          "type": "uint256"
        }
      ],
      "name": "exitProperty",
      "outputs": [
        {
          "internalType": "uint256[]",
          "name": "",
          "type": "uint256[]"
        },
        {
          "internalType": "uint256[]",
          "name": "",
          "type": "uint256[]"
        }
      ],
      "stateMutability": "nonpayable",
      "type": "function"
    },
    {
      "inputs": [],
      "name": "getAllProperties",
      "outputs": [
        {
          "components": [
            {
              "internalType": "address",
              "name": "owner",
              "type": "address"
            },
            {
              "internalType": "address",
              "name": "nftContractAddress",
              "type": "address"
            },
            {
              "internalType": "enum NeutrinoEstate.Status",
              "name": "propertyStatus",
              "type": "uint8"
            },
            {
              "internalType": "uint256",
              "name": "nftId",
              "type": "uint256"
            },
            {
              "internalType": "uint256",
              "name": "InitialdepositTimestamp",
              "type": "uint256"
            },
            {
              "internalType": "address",
              "name": "fractionContractAddress",
              "type": "address"
            },
            {
              "internalType": "uint256",
              "name": "price",
              "type": "uint256"
            },
            {
              "internalType": "uint256",
              "name": "supply",
              "type": "uint256"
            },
            {
              "internalType": "bool",
              "name": "hasFractionalized",
              "type": "bool"
            },
            {
              "internalType": "address",
              "name": "isBuyer",
              "type": "address"
            },
            {
              "internalType": "uint256",
              "name": "amountPaid",
              "type": "uint256"
            },
            {
              "internalType": "bool",
              "name": "isSold",
              "type": "bool"
            },
            {
              "internalType": "bool",
              "name": "isRented",
              "type": "bool"
            }
          ],
          "internalType": "struct NeutrinoEstate.PropertyInfo[]",
          "name": "",
          "type": "tuple[]"
        }
      ],
      "stateMutability": "view",
      "type": "function"
    },
    {
      "inputs": [
        {
          "internalType": "address",
          "name": "",
          "type": "address"
        },
        {
          "internalType": "address",
          "name": "from",
          "type": "address"
        },
        {
          "internalType": "uint256",
          "name": "",
          "type": "uint256"
        },
        {
          "internalType": "bytes",
          "name": "",
          "type": "bytes"
        }
      ],
      "name": "onERC721Received",
      "outputs": [
        {
          "internalType": "bytes4",
          "name": "",
          "type": "bytes4"
        }
      ],
      "stateMutability": "pure",
      "type": "function"
    },
    {
      "inputs": [
        {
          "internalType": "address",
          "name": "_nftContractAddress",
          "type": "address"
        },
        {
          "internalType": "uint256",
          "name": "_nftId",
          "type": "uint256"
        }
      ],
      "name": "reclaimAmountPaid",
      "outputs": [],
      "stateMutability": "nonpayable",
      "type": "function"
    },
    {
      "inputs": [
        {
          "internalType": "uint256",
          "name": "_nftID",
          "type": "uint256"
        },
        {
          "internalType": "address",
          "name": "_nftContractAddress",
          "type": "address"
        }
      ],
      "name": "stopRent",
      "outputs": [],
      "stateMutability": "nonpayable",
      "type": "function"
    }
  ],
  "bytecode": {
    "object": "0x608060405234801561001057600080fd5b5061493d806100206000396000f3fe608060405260043610620000ef5760003560e01c80637f6a4d2d1162000089578063ac32f7c01162000060578063ac32f7c014620002a0578063c47766e614620002c5578063d2b2e66414620002f9578063df17c942146200031e57600080fd5b80637f6a4d2d146200023d57806387f5b6c61462000254578063a2c8adc0146200028957600080fd5b80633d51402c11620000ca5780633d51402c14620001a757806356273ba414620001ce5780637c91902614620001f35780637e8889e4146200021857600080fd5b80630b1e0fd314620000f457806314958d4f146200011b578063150b7a02146200015d575b600080fd5b3480156200010157600080fd5b50620001196200011336600462003368565b62000343565b005b3480156200012857600080fd5b50620001406200013a36600462003395565b62000b84565b6040516001600160a01b0390911681526020015b60405180910390f35b3480156200016a57600080fd5b506200018d6200017c366004620033cb565b630a85bd0160e11b95945050505050565b6040516001600160e01b0319909116815260200162000154565b348015620001b457600080fd5b50620001bf62000d6c565b604051620001549190620034a8565b348015620001db57600080fd5b5062000119620001ed3660046200359c565b62000eb5565b3480156200020057600080fd5b50620001196200021236600462003368565b62001271565b3480156200022557600080fd5b50620001196200023736600462003368565b62001442565b620001196200024e366004620035d8565b620017b2565b3480156200026157600080fd5b50620002796200027336600462003395565b62001c53565b6040516200015492919062003644565b620001196200029a36600462003676565b6200257a565b348015620002ad57600080fd5b5062000119620002bf36600462003368565b62002c27565b348015620002d257600080fd5b50620002ea620002e4366004620036ae565b62002f86565b60405190815260200162000154565b3480156200030657600080fd5b506200011962000318366004620035d8565b62002fa8565b3480156200032b57600080fd5b50620002ea6200033d366004620036ae565b620032c5565b6001600160a01b03821660009081526004602090815260408083208484529091528120546001805491929183908110620003815762000381620036c8565b90600052602060002090600a020160040160009054906101000a90046001600160a01b0316905060018281548110620003be57620003be620036c8565b60009182526020909120600a90910201546001600160a01b03163314620004215760405162461bcd60e51b81526020600482015260126024820152712727aa10282927a822a92a2c9027aba722a960711b60448201526064015b60405180910390fd5b60006001600160a01b031660018381548110620004425762000442620036c8565b60009182526020909120600a909102016007015461010090046001600160a01b031603620004a85760405162461bcd60e51b8152602060048201526012602482015271627579696e6720696e2070726f677265737360701b604482015260640162000418565b60018281548110620004be57620004be620036c8565b90600052602060002090600a0201600301546276a700620004e09190620036f4565b421015620005235760405162461bcd60e51b815260206004820152600f60248201526e1393d5081156141254915108165155608a1b604482015260640162000418565b60018281548110620005395762000539620036c8565b600091825260209091206009600a90920201015460ff16156200058f5760405162461bcd60e51b815260206004820152600d60248201526c141c9bdc195c9d1e4814dbdb19609a1b604482015260640162000418565b806001600160a01b03166318160ddd6040518163ffffffff1660e01b8152600401602060405180830381865afa158015620005ce573d6000803e3d6000fd5b505050506040513d601f19601f82011682018060405250810190620005f4919062003710565b816001600160a01b03166370a0823160018581548110620006195762000619620036c8565b60009182526020909120600a909102016007015460405160e083901b6001600160e01b03191681526101009091046001600160a01b03166004820152602401602060405180830381865afa15801562000676573d6000803e3d6000fd5b505050506040513d601f19601f820116820180604052508101906200069c919062003710565b03620006df5760405162461bcd60e51b81526020600482015260116024820152701c185e5b595b9d0818dbdb5c1b195d1959607a1b604482015260640162000418565b806001600160a01b03166323b872dd60018481548110620007045762000704620036c8565b90600052602060002090600a020160070160019054906101000a90046001600160a01b031633846001600160a01b03166370a08231600188815481106200074f576200074f620036c8565b60009182526020909120600a909102016007015460405160e083901b6001600160e01b03191681526101009091046001600160a01b03166004820152602401602060405180830381865afa158015620007ac573d6000803e3d6000fd5b505050506040513d601f19601f82011682018060405250810190620007d2919062003710565b6040518463ffffffff1660e01b8152600401620007f2939291906200372a565b6020604051808303816000875af115801562000812573d6000803e3d6000fd5b505050506040513d601f19601f820116820180604052508101906200083891906200374e565b506000606460018481548110620008535762000853620036c8565b90600052602060002090600a020160080154604662000873919062003779565b6200087f919062003793565b905060006064600185815481106200089b576200089b620036c8565b90600052602060002090600a0201600801546014620008bb919062003779565b620008c7919062003793565b90506000606460018681548110620008e357620008e3620036c8565b90600052602060002090600a020160080154600a62000903919062003779565b6200090f919062003793565b90508060076000828254620009259190620036f4565b90915550506001805486908110620009415762000941620036c8565b90600052602060002090600a020160070160019054906101000a90046001600160a01b03166005600060018881548110620009805762000980620036c8565b60009182526020808320600a929092029091016007015461010090046001600160a01b03908116845283820194909452604092830182208c85168352905290812080546001600160a01b03191693909216929092179055600180548592600592909189908110620009f557620009f5620036c8565b90600052602060002090600a020160070160019054906101000a90046001600160a01b03166001600160a01b03166001600160a01b031681526020019081526020016000206000896001600160a01b03166001600160a01b031681526020019081526020016000206001018190555060006001868154811062000a7c5762000a7c620036c8565b90600052602060002090600a02016008018190555060006001868154811062000aa95762000aa9620036c8565b600091825260208220600a90910201546040516001600160a01b039091169185919081818185875af1925050503d806000811462000b04576040519150601f19603f3d011682016040523d82523d6000602084013e62000b09565b606091505b505090508062000b2d5760405162461bcd60e51b81526004016200041890620037b6565b60006001878154811062000b455762000b45620036c8565b90600052602060002090600a020160070160016101000a8154816001600160a01b0302191690836001600160a01b031602179055505050505050505050565b6001600160a01b0383166000908152600460209081526040808320858452909152812054600180543391908390811062000bc25762000bc2620036c8565b60009182526020909120600a90910201546001600160a01b03161462000c3c5760405162461bcd60e51b815260206004820152602860248201527f4f6e6c7920746865206f776e6572206f662074686973204e46542063616e206160448201526718d8d95cdcc81a5d60c21b606482015260840162000418565b600180828154811062000c535762000c53620036c8565b90600052602060002090600a020160070160006101000a81548160ff0219169083151502179055506000858533863060405162000c9090620032d6565b6001600160a01b03958616815260208101949094529184166040840152606083015260e0608083018190526007908301526626bcaa37b5b2b760c91b61010083015261012060a08301819052600390830152621b5e5d60ea1b61014083015290911660c082015261016001604051809103906000f08015801562000d18573d6000803e3d6000fd5b509050806001838154811062000d325762000d32620036c8565b60009182526020909120600a9091020160040180546001600160a01b0319166001600160a01b039290921691909117905595945050505050565b60606001805480602002602001604051908101604052809291908181526020016000905b8282101562000eac576000848152602090819020604080516101a081018252600a860290920180546001600160a01b039081168452600180830154918216958501959095529293909291840191600160a01b900460ff169081111562000dfa5762000dfa6200346f565b600181111562000e0e5762000e0e6200346f565b815260028201546020808301919091526003830154604083015260048301546001600160a01b03908116606084015260058401546080840152600684015460a0840152600784015460ff808216151560c08601526101009182900490921660e0850152600885015481850152600990940154808216151561012085015293909304909216151561014090910152908252600192909201910162000d90565b50505050905090565b8382158062000ec45750826001145b62000f035760405162461bcd60e51b815260206004820152600e60248201526d34b73b30b634b21037b83a34b7b760911b604482015260640162000418565b604051632142170760e11b81526001600160a01b038216906342842e0e9062000f35903390309089906004016200372a565b600060405180830381600087803b15801562000f5057600080fd5b505af115801562000f65573d6000803e3d6000fd5b5050505062000fd8604080516101a0810182526000808252602082018190529091820190815260006020820181905260408201819052606082018190526080820181905260a0820181905260c0820181905260e08201819052610100820181905261012082018190526101409091015290565b3381526001600160a01b038616602082015260608101859052600061010082018190528490036200103e576000604082018190526002805460018101825591527f405787fa12a823e0f2b7631cc41b3ba8828b3321ca811111fa75cd3aa3bb5ace018590555b83600103620010a3576001604082018190525060038054600181019091557fc2575a0e9e593c00f959f8c92f12db2869c3395a3b0502d05e2516446f71f85b01859055600085815260096020526040902060020180546001600160a01b031916331790555b60c08101839052600180548082018255600082905282517fb10e2d527612073b26eecdfd717e6a320cf44b4afac2b0732d9fcbe2b7fa0cf6600a90920291820180546001600160a01b03199081166001600160a01b0393841617825560208601517fb10e2d527612073b26eecdfd717e6a320cf44b4afac2b0732d9fcbe2b7fa0cf790940180549182169490931693841783556040860151869592949093926001600160a81b03199092161790600160a01b9084908111156200116a576200116a6200346f565b0217905550606082015160028201556080820151600382015560a08201516004820180546001600160a01b0319166001600160a01b0392831617905560c0830151600583015560e08301516006830155610100808401516007840180546101208701516001600160a81b0319909116921515610100600160a81b03191692909217919093168202179091556101408301516008830155610160830151600990920180546101809094015161ffff1990941692151561ff001916929092179215150291909117905560018054620012419190620037e4565b6001600160a01b039096166000908152600460209081526040808320978352969052949094209490945550505050565b6001600160a01b0380831660008181526004602090815260408083208684528252808320543380855260058452828520958552949092529091205490921614620012f05760405162461bcd60e51b815260206004820152600f60248201526e2737ba1030903232b330bab63a32b960891b604482015260640162000418565b60018181548110620013065762001306620036c8565b90600052602060002090600a0201600301546276a700620013289190620036f4565b421062001404573360009081526005602090815260408083206001600160a01b0387168452909152812060019081015481549092919084908110620013715762001371620036c8565b600091825260208220600a9190910201600701546040516101009091046001600160a01b03169184919081818185875af1925050503d8060008114620013d4576040519150601f19603f3d011682016040523d82523d6000602084013e620013d9565b606091505b5050905080620013fd5760405162461bcd60e51b81526004016200041890620037b6565b5050505050565b60405162461bcd60e51b815260206004820152601260248201527118d85b9b9bdd081c9958db185a5b481e595d60721b604482015260640162000418565b6001600160a01b03821660009081526004602090815260408083208484529091528120546001805491929183908110620014805762001480620036c8565b600091825260209091206004600a909202010154600180546001600160a01b039092169250339184908110620014ba57620014ba620036c8565b60009182526020909120600a90910201546001600160a01b0316146200150f5760405162461bcd60e51b81526020600482015260096024820152683737ba1037bbb732b960b91b604482015260640162000418565b806001600160a01b03166318160ddd6040518163ffffffff1660e01b8152600401602060405180830381865afa1580156200154e573d6000803e3d6000fd5b505050506040513d601f19601f8201168201806040525081019062001574919062003710565b816001600160a01b03166370a0823160018581548110620015995762001599620036c8565b60009182526020909120600a909102016007015460405160e083901b6001600160e01b03191681526101009091046001600160a01b03166004820152602401602060405180830381865afa158015620015f6573d6000803e3d6000fd5b505050506040513d601f19601f820116820180604052508101906200161c919062003710565b14620016625760405162461bcd60e51b81526020600482015260146024820152737061796d656e74206e6f7420636f6d706c65746560601b604482015260640162000418565b60006064600184815481106200167c576200167c620036c8565b90600052602060002090600a02016008015460506200169c919062003779565b620016a8919062003793565b90506000606460018581548110620016c457620016c4620036c8565b90600052602060002090600a0201600801546014620016e4919062003779565b620016f0919062003793565b90508060086000828254620017069190620036f4565b92505081905550600060018581548110620017255762001725620036c8565b600091825260208220600a90910201546040516001600160a01b039091169185919081818185875af1925050503d806000811462001780576040519150601f19603f3d011682016040523d82523d6000602084013e62001785565b606091505b5050905080620017a95760405162461bcd60e51b81526004016200041890620037b6565b50505050505050565b6001600160a01b03811660009081526004602090815260408083208584529091528120546001805491929183908110620017f057620017f0620036c8565b90600052602060002090600a020160040160009054906101000a90046001600160a01b0316905060006002826001600160a01b03166318160ddd6040518163ffffffff1660e01b8152600401602060405180830381865afa1580156200185a573d6000803e3d6000fd5b505050506040513d601f19601f8201168201806040525081019062001880919062003710565b6200188c919062003793565b9050600060018481548110620018a657620018a6620036c8565b6000918252602091829020604080516101a081018252600a90930290910180546001600160a01b03908116845260018083015491821695850195909552929390929184019160ff600160a01b90910416908111156200190957620019096200346f565b60018111156200191d576200191d6200346f565b8152600282015460208201526003820154604082015260048201546001600160a01b03908116606083015260058301546080830152600683015460a0830152600783015460ff808216151560c08501526101009182900490921660e084015260088401548184015260099093015480821615156101208401529290920490911615156101409091015261018081015190915015620019fe5760405162461bcd60e51b815260206004820152601b60248201527f70726f706572747920616c72656164792072656e746564206f75740000000000604482015260640162000418565b80516001600160a01b031662001a575760405162461bcd60e51b815260206004820152601760248201527f70726f706572747920646f6573206e6f74206578697374000000000000000000604482015260640162000418565b6001600160a01b038581166000908152600660209081526040808320338085529252909120549091160362001abb5760405162461bcd60e51b81526020600482015260096024820152683232b330bab63a32b960b91b604482015260640162000418565b8060c00151341462001b065760405162461bcd60e51b81526020600482015260136024820152721a5b9cdd59999a58da595b9d08185b5bdd5b9d606a1b604482015260640162000418565b600086815260096020526040902060028101546001600160a01b031662001b695760405162461bcd60e51b815260206004820152601660248201527573686179207520646579207768796e65206d65206e6960501b604482015260640162000418565b6001810180546001600160a01b031916339081179091558382554260048084019190915560a084015184516040516323b872dd60e01b815291936001600160a01b038516936323b872dd9362001bc49392918a91016200372a565b6020604051808303816000875af115801562001be4573d6000803e3d6000fd5b505050506040513d601f19601f8201168201806040525081019062001c0a91906200374e565b62001c495760405162461bcd60e51b815260206004820152600e60248201526d14995b9d1a5b99c819985a5b195960921b604482015260640162000418565b5050505050505050565b6001600160a01b03831660009081526004602090815260408083208584529091528120546001805460609384939288928490811062001c965762001c96620036c8565b600091825260209091206004600a9092020101546001600160a01b0316905085158062001cc35750856001145b62001d025760405162461bcd60e51b815260206004820152600e60248201526d34b73b30b634b21037b83a34b7b760911b604482015260640162000418565b8560000362001d965760006001848154811062001d235762001d23620036c8565b90600052602060002090600a020160010160149054906101000a900460ff16600181111562001d565762001d566200346f565b1462001d965760405162461bcd60e51b815260206004820152600e60248201526d696e76616c69642073746174757360901b604482015260640162000418565b8560010362001e2957600180848154811062001db65762001db6620036c8565b90600052602060002090600a020160010160149054906101000a900460ff16600181111562001de95762001de96200346f565b1462001e295760405162461bcd60e51b815260206004820152600e60248201526d696e76616c69642073746174757360901b604482015260640162000418565b60006001600160a01b03166001848154811062001e4a5762001e4a620036c8565b60009182526020909120600a909102016007015461010090046001600160a01b03161462001eb05760405162461bcd60e51b8152602060048201526012602482015271627579696e6720696e2070726f677265737360701b604482015260640162000418565b6000878152600960205260409020600101546001600160a01b03161562001f0e5760405162461bcd60e51b8152602060048201526011602482015270185c185c9d1b595b9d081a5b881c995b9d607a1b604482015260640162000418565b336001600160a01b03166001848154811062001f2e5762001f2e620036c8565b60009182526020909120600a90910201546001600160a01b03161462001f835760405162461bcd60e51b81526020600482015260096024820152683737ba1037bbb732b960b91b604482015260640162000418565b604051632142170760e11b81526001600160a01b038316906342842e0e9062001fb590309033908c906004016200372a565b600060405180830381600087803b15801562001fd057600080fd5b505af115801562001fe5573d6000803e3d6000fd5b50506040516370a0823160e01b81523360048201526001600160a01b038416925063fcd3533c915082906370a0823190602401602060405180830381865afa15801562002036573d6000803e3d6000fd5b505050506040513d601f19601f820116820180604052508101906200205c919062003710565b6040516001600160e01b031960e084901b1681526004810191909152336024820152604401600060405180830381600087803b1580156200209c57600080fd5b505af1158015620020b1573d6000803e3d6000fd5b5060009250620020bf915050565b60018481548110620020d557620020d5620036c8565b90600052602060002090600a020160010160149054906101000a900460ff1660018111156200210857620021086200346f565b03620022c15760025460018190036200214b5760028054806200212f576200212f620037fa565b60019003818190600052602060002001600090559055620022bf565b60008167ffffffffffffffff81111562002169576200216962003810565b60405190808252806020026020018201604052801562002193578160200160208202803683370190505b506002805460408051602080840282018101909252828152939450830182828015620021df57602002820191906000526020600020905b815481526020019060010190808311620021ca575b5050505050905060005b82811015620022925789828281518110620022085762002208620036c8565b6020026020010151036200227d578160018351620022279190620037e4565b815181106200223a576200223a620036c8565b6020026020010151828281518110620022575762002257620036c8565b60200260200101818152505081600290805190602001906200227b929190620032e4565b505b80620022898162003826565b915050620021e9565b506002805480620022a757620022a7620037fa565b60019003818190600052602060002001600090559055505b505b6001808481548110620022d857620022d8620036c8565b90600052602060002090600a020160010160149054906101000a900460ff1660018111156200230b576200230b6200346f565b03620024bf57600254600181900362002349576003805480620023325762002332620037fa565b600190038181906000526020600020016000905590555b60008167ffffffffffffffff81111562002367576200236762003810565b60405190808252806020026020018201604052801562002391578160200160208202803683370190505b506003805460408051602080840282018101909252828152939450830182828015620023dd57602002820191906000526020600020905b815481526020019060010190808311620023c8575b5050505050905060005b82811015620024bb5789828281518110620024065762002406620036c8565b6020026020010151036200247b578160018351620024259190620037e4565b81518110620024385762002438620036c8565b6020026020010151828281518110620024555762002455620036c8565b602002602001018181525050816003908051906020019062002479929190620032e4565b505b60038054806200248f576200248f620037fa565b600190038181906000526020600020016000905590558080620024b29062003826565b915050620023e7565b5050505b60026003818054806020026020016040519081016040528092919081815260200182805480156200251057602002820191906000526020600020905b815481526020019060010190808311620024fb575b50505050509150808054806020026020016040519081016040528092919081815260200182805480156200256457602002820191906000526020600020905b8154815260200190600101908083116200254f575b5050505050905094509450505050935093915050565b60006200258d84642e90edd00062003779565b6001600160a01b038316600090815260046020908152604080832087845290915281205460018054939450909283908110620025cd57620025cd620036c8565b6000918252602082206004600a909202010154600180546001600160a01b0390921693509084908110620026055762002605620036c8565b60009182526020909120600a909102016007015461010090046001600160a01b03161480620026735750336001600160a01b0316600183815481106200264f576200264f620036c8565b60009182526020909120600a909102016007015461010090046001600160a01b0316145b620026b15760405162461bcd60e51b815260206004820152600d60248201526c4e6f7420617661696c61626c6560981b604482015260640162000418565b600060018381548110620026c957620026c9620036c8565b90600052602060002090600a020160010160149054906101000a900460ff166001811115620026fc57620026fc6200346f565b146200273b5760405162461bcd60e51b815260206004820152600d60248201526c666f722073616c65206f6e6c7960981b604482015260640162000418565b8234146200277d5760405162461bcd60e51b815260206004820152600e60248201526d0dcdee840cadcdeeaced040cae8d60931b604482015260640162000418565b806001600160a01b03166318160ddd6040518163ffffffff1660e01b8152600401602060405180830381865afa158015620027bc573d6000803e3d6000fd5b505050506040513d601f19601f82011682018060405250810190620027e2919062003710565b861115620027ef57600080fd5b60018281548110620028055762002805620036c8565b600091825260209091206007600a90920201015460ff16620028565760405162461bcd60e51b8152602060048201526009602482015268273790313abcb7b33360b91b604482015260640162000418565b600182815481106200286c576200286c620036c8565b600091825260209091206009600a90920201015460ff1615620028c25760405162461bcd60e51b815260206004820152600d60248201526c1c1c9bdc195c9d1e4814dbdb19609a1b604482015260640162000418565b60018281548110620028d857620028d8620036c8565b90600052602060002090600a0201600301546276a700620028fa9190620036f4565b42106200293c5760405162461bcd60e51b815260206004820152600f60248201526e1d1a5b59481a185cc81c185cdcd959608a1b604482015260640162000418565b336001600160a01b0316600183815481106200295c576200295c620036c8565b60009182526020909120600a909102016007015461010090046001600160a01b03160362002a7057806001600160a01b03166323b872dd60018481548110620029a957620029a9620036c8565b60009182526020909120600a90910201546040516001600160e01b031960e084901b168152620029ea916001600160a01b03169033908b906004016200372a565b6020604051808303816000875af115801562002a0a573d6000803e3d6000fd5b505050506040513d601f19601f8201168201806040525081019062002a3091906200374e565b50826001838154811062002a485762002a48620036c8565b90600052602060002090600a0201600801600082825462002a6a9190620036f4565b90915550505b60006001600160a01b03166001838154811062002a915762002a91620036c8565b60009182526020909120600a909102016007015461010090046001600160a01b03160362002c1f57806001600160a01b03166323b872dd6001848154811062002ade5762002ade620036c8565b60009182526020909120600a90910201546040516001600160e01b031960e084901b16815262002b1f916001600160a01b03169033908b906004016200372a565b6020604051808303816000875af115801562002b3f573d6000803e3d6000fd5b505050506040513d601f19601f8201168201806040525081019062002b6591906200374e565b50336001838154811062002b7d5762002b7d620036c8565b90600052602060002090600a020160070160016101000a8154816001600160a01b0302191690836001600160a01b03160217905550826001838154811062002bc95762002bc9620036c8565b90600052602060002090600a0201600801600082825462002beb9190620036f4565b92505081905550426001838154811062002c095762002c09620036c8565b90600052602060002090600a0201600301819055505b505050505050565b6001600160a01b0382166000908152600460209081526040808320848452909152812054600180549192918390811062002c655762002c65620036c8565b600091825260209091206004600a909202010154600180546001600160a01b03909216925085913391908590811062002ca25762002ca2620036c8565b60009182526020909120600a909102016007015461010090046001600160a01b03161462002cff5760405162461bcd60e51b81526020600482015260096024820152683737ba10313abcb2b960b91b604482015260640162000418565b816001600160a01b03166318160ddd6040518163ffffffff1660e01b8152600401602060405180830381865afa15801562002d3e573d6000803e3d6000fd5b505050506040513d601f19601f8201168201806040525081019062002d64919062003710565b6040516370a0823160e01b81523360048201526001600160a01b038416906370a0823190602401602060405180830381865afa15801562002da9573d6000803e3d6000fd5b505050506040513d601f19601f8201168201806040525081019062002dcf919062003710565b1462002e145760405162461bcd60e51b81526020600482015260136024820152727061796d656e74206f75747374616e64696e6760681b604482015260640162000418565b600180848154811062002e2b5762002e2b620036c8565b60009182526020909120600a90910201600901805460ff1916911515919091179055604051632142170760e11b81526001600160a01b038216906342842e0e9062002e7f903090339089906004016200372a565b600060405180830381600087803b15801562002e9a57600080fd5b505af115801562002eaf573d6000803e3d6000fd5b50506040516370a0823160e01b81523360048201526001600160a01b038516925063fcd3533c915082906370a0823190602401602060405180830381865afa15801562002f00573d6000803e3d6000fd5b505050506040513d601f19601f8201168201806040525081019062002f26919062003710565b6040516001600160e01b031960e084901b1681526004810191909152336024820152604401600060405180830381600087803b15801562002f6657600080fd5b505af115801562002f7b573d6000803e3d6000fd5b505050505050505050565b6003818154811062002f9757600080fd5b600091825260209091200154905081565b6001600160a01b0381166000908152600460209081526040808320858452909152812054600180549192918390811062002fe65762002fe6620036c8565b6000918252602091829020604080516101a081018252600a90930290910180546001600160a01b03908116845260018083015491821695850195909552929390929184019160ff600160a01b90910416908111156200304957620030496200346f565b60018111156200305d576200305d6200346f565b81526002820154602080830191909152600383015460408084019190915260048401546001600160a01b03908116606085015260058501546080850152600685015460a0850152600785015460ff808216151560c087015261010091829004831660e087015260088701548287015260099687015480821615156101208801529190910416151561014090940193909352600089815293909152909120825192935091163314806200311b575060018101546001600160a01b031633145b6200315a5760405162461bcd60e51b815260206004820152600e60248201526d1b9bdd08185d5d1a1bdc9a5cd95960921b604482015260640162000418565b60018101546001600160a01b03163303620031a85780600401548160030154620031859190620036f4565b421115620031a85760006101808301526001810180546001600160a01b03191690555b60028101546001600160a01b03163303620013fd5780600401548160030154620031d39190620036f4565b620031e29062786450620036f4565b4211156200323a57600061018083018190526001820180546001600160a01b03878116845260066020908152604080862092909316808652919052922080546001600160a01b03199081169093179055805490911690555b60a08201516001820154600283015483546040516323b872dd60e01b81526001600160a01b03808616946323b872dd946200327f94918316939216916004016200372a565b6020604051808303816000875af11580156200329f573d6000803e3d6000fd5b505050506040513d601f19601f82011682018060405250810190620017a991906200374e565b6002818154811062002f9757600080fd5b6110c5806200384383390190565b82805482825590600052602060002090810192821562003322579160200282015b828111156200332257825182559160200191906001019062003305565b506200333092915062003334565b5090565b5b8082111562003330576000815560010162003335565b80356001600160a01b03811681146200336357600080fd5b919050565b600080604083850312156200337c57600080fd5b62003387836200334b565b946020939093013593505050565b600080600060608486031215620033ab57600080fd5b620033b6846200334b565b95602085013595506040909401359392505050565b600080600080600060808688031215620033e457600080fd5b620033ef866200334b565b9450620033ff602087016200334b565b935060408601359250606086013567ffffffffffffffff808211156200342457600080fd5b818801915088601f8301126200343957600080fd5b8135818111156200344957600080fd5b8960208285010111156200345c57600080fd5b9699959850939650602001949392505050565b634e487b7160e01b600052602160045260246000fd5b60028110620034a457634e487b7160e01b600052602160045260246000fd5b9052565b602080825282518282018190526000919060409081850190868401855b828110156200358f57815180516001600160a01b03908116865287820151168786015285810151620034fa8787018262003485565b50606081810151908601526080808201519086015260a0808201516001600160a01b039081169187019190915260c0808301519087015260e08083015190870152610100808301511515908701526101208083015190911690860152610140808201519086015261016080820151151590860152610180908101511515908501526101a09093019290850190600101620034c5565b5091979650505050505050565b60008060008060808587031215620035b357600080fd5b620035be856200334b565b966020860135965060408601359560600135945092505050565b60008060408385031215620035ec57600080fd5b82359150620035fe602084016200334b565b90509250929050565b600081518084526020808501945080840160005b8381101562003639578151875295820195908201906001016200361b565b509495945050505050565b60408152600062003659604083018562003607565b82810360208401526200366d818562003607565b95945050505050565b6000806000606084860312156200368c57600080fd5b8335925060208401359150620036a5604085016200334b565b90509250925092565b600060208284031215620036c157600080fd5b5035919050565b634e487b7160e01b600052603260045260246000fd5b634e487b7160e01b600052601160045260246000fd5b808201808211156200370a576200370a620036de565b92915050565b6000602082840312156200372357600080fd5b5051919050565b6001600160a01b039384168152919092166020820152604081019190915260600190565b6000602082840312156200376157600080fd5b815180151581146200377257600080fd5b9392505050565b80820281158282048414176200370a576200370a620036de565b600082620037b157634e487b7160e01b600052601260045260246000fd5b500490565b6020808252601490820152732330b4b632b2103a379039b2b7321022ba3432b960611b604082015260600190565b818103818111156200370a576200370a620036de565b634e487b7160e01b600052603160045260246000fd5b634e487b7160e01b600052604160045260246000fd5b6000600182016200383b576200383b620036de565b506001019056fe60806040523480156200001157600080fd5b50604051620010c5380380620010c5833981016040819052620000349162000268565b82826003620000448382620003ac565b506004620000538282620003ac565b5050600580546001600160a01b03808b166001600160a01b03199283161790925560068990556007805489841690831617905560088054821633179055600b80549285169290911691909117905550620000ae8585620000bb565b50505050505050620004a0565b6001600160a01b038216620001165760405162461bcd60e51b815260206004820152601f60248201527f45524332303a206d696e7420746f20746865207a65726f206164647265737300604482015260640160405180910390fd5b80600260008282546200012a919062000478565b90915550506001600160a01b038216600081815260208181526040808320805486019055518481527fddf252ad1be2c89b69c2b068fc378daa952ba7f163c4a11628f55a4df523b3ef910160405180910390a35050565b505050565b80516001600160a01b03811681146200019e57600080fd5b919050565b634e487b7160e01b600052604160045260246000fd5b600082601f830112620001cb57600080fd5b81516001600160401b0380821115620001e857620001e8620001a3565b604051601f8301601f19908116603f01168101908282118183101715620002135762000213620001a3565b816040528381526020925086838588010111156200023057600080fd5b600091505b8382101562000254578582018301518183018401529082019062000235565b600093810190920192909252949350505050565b600080600080600080600060e0888a0312156200028457600080fd5b6200028f8862000186565b965060208801519550620002a66040890162000186565b606089015160808a015191965094506001600160401b0380821115620002cb57600080fd5b620002d98b838c01620001b9565b945060a08a0151915080821115620002f057600080fd5b50620002ff8a828b01620001b9565b9250506200031060c0890162000186565b905092959891949750929550565b600181811c908216806200033357607f821691505b6020821081036200035457634e487b7160e01b600052602260045260246000fd5b50919050565b601f8211156200018157600081815260208120601f850160051c81016020861015620003835750805b601f850160051c820191505b81811015620003a4578281556001016200038f565b505050505050565b81516001600160401b03811115620003c857620003c8620001a3565b620003e081620003d984546200031e565b846200035a565b602080601f831160018114620004185760008415620003ff5750858301515b600019600386901b1c1916600185901b178555620003a4565b600085815260208120601f198616915b82811015620004495788860151825594840194600190910190840162000428565b5085821015620004685787850151600019600388901b60f8161c191681555b5050505050600190811b01905550565b808201808211156200049a57634e487b7160e01b600052601160045260246000fd5b92915050565b610c1580620004b06000396000f3fe608060405234801561001057600080fd5b50600436106101165760003560e01c806355150d24116100a2578063a457c2d711610071578063a457c2d714610247578063a9059cbb1461025a578063bed1dbbe1461026d578063dd62ed3e14610280578063fcd3533c1461029357600080fd5b806355150d24146101f057806370a082311461020357806379cc67901461022c57806395d89b411461023f57600080fd5b806323b872dd116100e957806323b872dd1461017b578063310c87cc1461018e578063313ce567146101b957806339509351146101c857806342966c68146101db57600080fd5b806306fdde031461011b578063095ea7b3146101395780630fe550d11461015c57806318160ddd14610173575b600080fd5b6101236102a6565b6040516101309190610a23565b60405180910390f35b61014c610147366004610a8d565b610338565b6040519015158152602001610130565b61016560065481565b604051908152602001610130565b600254610165565b61014c610189366004610ab7565b610352565b6005546101a1906001600160a01b031681565b6040516001600160a01b039091168152602001610130565b60405160128152602001610130565b61014c6101d6366004610a8d565b6103fe565b6101ee6101e9366004610af3565b610420565b005b6008546101a1906001600160a01b031681565b610165610211366004610b0c565b6001600160a01b031660009081526020819052604090205490565b6101ee61023a366004610a8d565b61042d565b610123610446565b61014c610255366004610a8d565b610455565b61014c610268366004610a8d565b6104d0565b6007546101a1906001600160a01b031681565b61016561028e366004610b2e565b610536565b6101ee6102a1366004610b61565b610561565b6060600380546102b590610b84565b80601f01602080910402602001604051908101604052809291908181526020018280546102e190610b84565b801561032e5780601f106103035761010080835404028352916020019161032e565b820191906000526020600020905b81548152906001019060200180831161031157829003601f168201915b5050505050905090565b6000336103468185856105b6565b60019150505b92915050565b600061035d60025490565b6001600160a01b0384811660009081526020819052604080822054928816825290205461038a9190610bbe565b146103dc5760405162461bcd60e51b815260206004820152601760248201527f63616e6e6f7420757365207472616e7366657266726f6d00000000000000000060448201526064015b60405180910390fd5b336103e88582856106db565b6103f3858585610755565b506001949350505050565b6000336103468185856104118383610536565b61041b9190610bbe565b6105b6565b61042a33826108f9565b50565b6104388233836106db565b61044282826108f9565b5050565b6060600480546102b590610b84565b600033816104638286610536565b9050838110156104c35760405162461bcd60e51b815260206004820152602560248201527f45524332303a2064656372656173656420616c6c6f77616e63652062656c6f77604482015264207a65726f60d81b60648201526084016103d3565b6103f382868684036105b6565b60006104db60025490565b336000908152602081905260409020541461052a5760405162461bcd60e51b815260206004820152600f60248201526e31b0b73737ba103a3930b739b332b960891b60448201526064016103d3565b33610346818585610755565b6001600160a01b03918216600090815260016020908152604080832093909416825291909152205490565b600b546001600160a01b031633146105ac5760405162461bcd60e51b815260206004820152600e60248201526d1b9bdd08185d5d1a1bdc9a5e995960921b60448201526064016103d3565b61044281836108f9565b6001600160a01b0383166106185760405162461bcd60e51b8152602060048201526024808201527f45524332303a20617070726f76652066726f6d20746865207a65726f206164646044820152637265737360e01b60648201526084016103d3565b6001600160a01b0382166106795760405162461bcd60e51b815260206004820152602260248201527f45524332303a20617070726f766520746f20746865207a65726f206164647265604482015261737360f01b60648201526084016103d3565b6001600160a01b0383811660008181526001602090815260408083209487168084529482529182902085905590518481527f8c5be1e5ebec7d5bd14f71427d1e84f3dd0314c0f7b2291e5b200ac8c7c3b92591015b60405180910390a3505050565b60006106e78484610536565b9050600019811461074f57818110156107425760405162461bcd60e51b815260206004820152601d60248201527f45524332303a20696e73756666696369656e7420616c6c6f77616e636500000060448201526064016103d3565b61074f84848484036105b6565b50505050565b6001600160a01b0383166107b95760405162461bcd60e51b815260206004820152602560248201527f45524332303a207472616e736665722066726f6d20746865207a65726f206164604482015264647265737360d81b60648201526084016103d3565b6001600160a01b03821661081b5760405162461bcd60e51b815260206004820152602360248201527f45524332303a207472616e7366657220746f20746865207a65726f206164647260448201526265737360e81b60648201526084016103d3565b6001600160a01b038316600090815260208190526040902054818110156108935760405162461bcd60e51b815260206004820152602660248201527f45524332303a207472616e7366657220616d6f756e7420657863656564732062604482015265616c616e636560d01b60648201526084016103d3565b6001600160a01b03848116600081815260208181526040808320878703905593871680835291849020805487019055925185815290927fddf252ad1be2c89b69c2b068fc378daa952ba7f163c4a11628f55a4df523b3ef910160405180910390a361074f565b6001600160a01b0382166109595760405162461bcd60e51b815260206004820152602160248201527f45524332303a206275726e2066726f6d20746865207a65726f206164647265736044820152607360f81b60648201526084016103d3565b6001600160a01b038216600090815260208190526040902054818110156109cd5760405162461bcd60e51b815260206004820152602260248201527f45524332303a206275726e20616d6f756e7420657863656564732062616c616e604482015261636560f01b60648201526084016103d3565b6001600160a01b0383166000818152602081815260408083208686039055600280548790039055518581529192917fddf252ad1be2c89b69c2b068fc378daa952ba7f163c4a11628f55a4df523b3ef91016106ce565b600060208083528351808285015260005b81811015610a5057858101830151858201604001528201610a34565b506000604082860101526040601f19601f8301168501019250505092915050565b80356001600160a01b0381168114610a8857600080fd5b919050565b60008060408385031215610aa057600080fd5b610aa983610a71565b946020939093013593505050565b600080600060608486031215610acc57600080fd5b610ad584610a71565b9250610ae360208501610a71565b9150604084013590509250925092565b600060208284031215610b0557600080fd5b5035919050565b600060208284031215610b1e57600080fd5b610b2782610a71565b9392505050565b60008060408385031215610b4157600080fd5b610b4a83610a71565b9150610b5860208401610a71565b90509250929050565b60008060408385031215610b7457600080fd5b82359150610b5860208401610a71565b600181811c90821680610b9857607f821691505b602082108103610bb857634e487b7160e01b600052602260045260246000fd5b50919050565b8082018082111561034c57634e487b7160e01b600052601160045260246000fdfea2646970667358221220fd55f8236519353e1ce2cc23304bbf4c0cec38615da8208d0655c41025bd2fd764736f6c63430008130033a2646970667358221220e8ae455b3308da12eca18e36bccc71a59b9d96e1c6f388f5a294a0f41f7298b064736f6c63430008130033",
    "linkReferences": {}
  },
  "methodIdentifiers": {
    "ForRentNFTIDS(uint256)": "c47766e6",
    "ForSaleNFTIDs(uint256)": "df17c942",
    "RentProperty(uint256,address)": "7f6a4d2d",
    "RetrievePropertyOnDefault(address,uint256)": "0b1e0fd3",
    "buyPropertyInstallMent(uint256,uint256,address)": "a2c8adc0",
    "claimPaymentOnProperty(address,uint256)": "7e8889e4",
    "claimProperty(address,uint256)": "ac32f7c0",
    "createFraction(address,uint256,uint256)": "14958d4f",
    "depositPropertyNft(address,uint256,uint256,uint256)": "56273ba4",
    "exitProperty(address,uint256,uint256)": "87f5b6c6",
    "getAllProperties()": "3d51402c",
    "onERC721Received(address,address,uint256,bytes)": "150b7a02",
    "reclaimAmountPaid(address,uint256)": "7c919026",
    "stopRent(uint256,address)": "d2b2e664"
  },
  "id": 38
}