{
  "abi": [
    {
      "inputs": [],
      "stateMutability": "nonpayable",
      "type": "constructor"
    },
    {
      "inputs": [
        {
          "internalType": "uint256",
          "name": "_amt",
          "type": "uint256"
        },
        {
          "internalType": "uint256",
          "name": "_nftID",
          "type": "uint256"
        },
        {
          "internalType": "address",
          "name": "_nftContractAddress",
          "type": "address"
        }
      ],
      "name": "RentProperty",
      "outputs": [],
      "stateMutability": "payable",
      "type": "function"
    },
    {
      "inputs": [
        {
          "internalType": "address",
          "name": "_nftContractAddress",
          "type": "address"
        },
        {
          "internalType": "uint256",
          "name": "_nftId",
          "type": "uint256"
        }
      ],
      "name": "RetrievePropertyOnDefault",
      "outputs": [],
      "stateMutability": "nonpayable",
      "type": "function"
    },
    {
      "inputs": [
        {
          "internalType": "uint256",
          "name": "_amount",
          "type": "uint256"
        },
        {
          "internalType": "uint256",
          "name": "_nftID",
          "type": "uint256"
        },
        {
          "internalType": "address",
          "name": "_nftContractAddress",
          "type": "address"
        }
      ],
      "name": "buyPropertyInstallMent",
      "outputs": [],
      "stateMutability": "payable",
      "type": "function"
    },
    {
      "inputs": [
        {
          "internalType": "address",
          "name": "_nftContractAddress",
          "type": "address"
        },
        {
          "internalType": "uint256",
          "name": "_nftId",
          "type": "uint256"
        }
      ],
      "name": "claimPaymentOnProperty",
      "outputs": [],
      "stateMutability": "nonpayable",
      "type": "function"
    },
    {
      "inputs": [
        {
          "internalType": "address",
          "name": "_nftContractAddress",
          "type": "address"
        },
        {
          "internalType": "uint256",
          "name": "_nftId",
          "type": "uint256"
        }
      ],
      "name": "claimProperty",
      "outputs": [],
      "stateMutability": "nonpayable",
      "type": "function"
    },
    {
      "inputs": [
        {
          "internalType": "address",
          "name": "_nftContractAddress",
          "type": "address"
        },
        {
          "internalType": "uint256",
          "name": "_nftId",
          "type": "uint256"
        },
        {
          "internalType": "uint256",
          "name": "_supply",
          "type": "uint256"
        },
        {
          "internalType": "string",
          "name": "_tokenName",
          "type": "string"
        },
        {
          "internalType": "string",
          "name": "_tokenSymbol",
          "type": "string"
        }
      ],
      "name": "createFraction",
      "outputs": [
        {
          "internalType": "address",
          "name": "",
          "type": "address"
        }
      ],
      "stateMutability": "nonpayable",
      "type": "function"
    },
    {
      "inputs": [
        {
          "internalType": "address",
          "name": "_nftContractAddress",
          "type": "address"
        },
        {
          "internalType": "uint256",
          "name": "_nftId",
          "type": "uint256"
        },
        {
          "internalType": "enum NeutrinoEstate.Status",
          "name": "_status",
          "type": "uint8"
        },
        {
          "internalType": "uint256",
          "name": "_price",
          "type": "uint256"
        }
      ],
      "name": "depositPropertyNft",
      "outputs": [],
      "stateMutability": "nonpayable",
      "type": "function"
    },
    {
      "inputs": [
        {
          "internalType": "address",
          "name": "_nftContractAddress",
          "type": "address"
        },
        {
          "internalType": "uint256",
          "name": "_nftId",
          "type": "uint256"
        }
      ],
      "name": "exitProperty",
      "outputs": [],
      "stateMutability": "nonpayable",
      "type": "function"
    },
    {
      "inputs": [],
      "name": "getAllProperties",
      "outputs": [
        {
          "components": [
            {
              "internalType": "address",
              "name": "owner",
              "type": "address"
            },
            {
              "internalType": "address",
              "name": "nftContractAddress",
              "type": "address"
            },
            {
              "internalType": "enum NeutrinoEstate.Status",
              "name": "propertyStatus",
              "type": "uint8"
            },
            {
              "internalType": "uint256",
              "name": "nftId",
              "type": "uint256"
            },
            {
              "internalType": "uint256",
              "name": "InitialdepositTimestamp",
              "type": "uint256"
            },
            {
              "internalType": "address",
              "name": "fractionContractAddress",
              "type": "address"
            },
            {
              "internalType": "uint256",
              "name": "price",
              "type": "uint256"
            },
            {
              "internalType": "uint256",
              "name": "supply",
              "type": "uint256"
            },
            {
              "internalType": "bool",
              "name": "hasFractionalized",
              "type": "bool"
            },
            {
              "internalType": "address",
              "name": "isBuyer",
              "type": "address"
            },
            {
              "internalType": "uint256",
              "name": "amountPaid",
              "type": "uint256"
            },
            {
              "internalType": "bool",
              "name": "isSold",
              "type": "bool"
            },
            {
              "internalType": "bool",
              "name": "isRented",
              "type": "bool"
            }
          ],
          "internalType": "struct NeutrinoEstate.PropertyInfo[]",
          "name": "",
          "type": "tuple[]"
        }
      ],
      "stateMutability": "view",
      "type": "function"
    },
    {
      "inputs": [
        {
          "internalType": "address",
          "name": "_nftContractAddress",
          "type": "address"
        },
        {
          "internalType": "uint256",
          "name": "_nftId",
          "type": "uint256"
        }
      ],
      "name": "reclaimAmountPaid",
      "outputs": [],
      "stateMutability": "nonpayable",
      "type": "function"
    },
    {
      "inputs": [
        {
          "internalType": "uint256",
          "name": "_nftID",
          "type": "uint256"
        }
      ],
      "name": "stopRent",
      "outputs": [],
      "stateMutability": "nonpayable",
      "type": "function"
    }
  ],
  "bytecode": {
    "object": "0x608060405234801561001057600080fd5b50613dcd806100206000396000f3fe608060405260043610620000a95760003560e01c80637c919026116200006c5780637c919026146200017f5780637e8889e414620001a4578063a2c8adc014620001c9578063ac32f7c014620001e0578063bf4b8b151462000205578063d80021dc146200022a57600080fd5b80630b1e0fd314620000ae5780632d3312fc14620000d55780633d51402c14620000fa5780635c8a467c146200012a5780637ab5bda91462000141575b600080fd5b348015620000bb57600080fd5b50620000d3620000cd3660046200278c565b6200024f565b005b348015620000e257600080fd5b50620000d3620000f43660046200278c565b62000914565b3480156200010757600080fd5b506200011262000d75565b604051620001219190620027f2565b60405180910390f35b620000d36200013b366004620028e6565b62000f48565b3480156200014e57600080fd5b506200016662000160366004620029c9565b62001340565b6040516001600160a01b03909116815260200162000121565b3480156200018c57600080fd5b50620000d36200019e3660046200278c565b620014d3565b348015620001b157600080fd5b50620000d3620001c33660046200278c565b620016a8565b620000d3620001da366004620028e6565b620018f6565b348015620001ed57600080fd5b50620000d3620001ff3660046200278c565b62001f9f565b3480156200021257600080fd5b50620000d36200022436600462002a5a565b620022fb565b3480156200023757600080fd5b50620000d36200024936600462002aa8565b620025bd565b6001600160a01b038216600090815260026020908152604080832084845290915281205481549091908190839081106200028d576200028d62002ac2565b6000918252602082206004600a90920201015481546001600160a01b03909116925083908110620002c257620002c262002ac2565b60009182526020909120600a90910201546001600160a01b03163314620003255760405162461bcd60e51b81526020600482015260126024820152712727aa10282927a822a92a2c9027aba722a960711b60448201526064015b60405180910390fd5b60006001600160a01b03166000838154811062000346576200034662002ac2565b60009182526020909120600a909102016007015461010090046001600160a01b031603620003ac5760405162461bcd60e51b8152602060048201526012602482015271627579696e6720696e2070726f677265737360701b60448201526064016200031c565b60008281548110620003c257620003c262002ac2565b90600052602060002090600a0201600301546276a700620003e4919062002aee565b421015620004275760405162461bcd60e51b815260206004820152600f60248201526e1393d5081156141254915108165155608a1b60448201526064016200031c565b60008083815481106200043e576200043e62002ac2565b60009182526020909120600a90910201600901805460ff19168215151790556200049b5760405162461bcd60e51b815260206004820152600d60248201526c141c9bdc195c9d1e4814dbdb19609a1b60448201526064016200031c565b806001600160a01b03166323b872dd60008481548110620004c057620004c062002ac2565b90600052602060002090600a020160070160019054906101000a90046001600160a01b031633846001600160a01b03166370a08231600088815481106200050b576200050b62002ac2565b60009182526020909120600a909102016007015460405160e083901b6001600160e01b03191681526101009091046001600160a01b03166004820152602401602060405180830381865afa15801562000568573d6000803e3d6000fd5b505050506040513d601f19601f820116820180604052508101906200058e919062002b0a565b6040518463ffffffff1660e01b8152600401620005ae9392919062002b24565b6020604051808303816000875af1158015620005ce573d6000803e3d6000fd5b505050506040513d601f19601f82011682018060405250810190620005f4919062002b48565b5060006064600084815481106200060f576200060f62002ac2565b90600052602060002090600a02016008015460466200062f919062002b73565b6200063b919062002b8d565b9050600060646000858154811062000657576200065762002ac2565b90600052602060002090600a020160080154601462000677919062002b73565b62000683919062002b8d565b905060006064600086815481106200069f576200069f62002ac2565b90600052602060002090600a020160080154600a620006bf919062002b73565b620006cb919062002b8d565b90508060046000828254620006e1919062002aee565b90915550506000805486908110620006fd57620006fd62002ac2565b90600052602060002090600a020160070160019054906101000a90046001600160a01b0316600360008088815481106200073b576200073b62002ac2565b60009182526020808320600a929092029091016007015461010090046001600160a01b03908116845283820194909452604092830182208c85168352905290812080546001600160a01b0319169390921692909217905580548491600391819089908110620007ae57620007ae62002ac2565b600091825260208083206007600a9093020191909101546001600160a01b03610100909104811684528382019490945260409283018220938c1682529290925281206001019190915580548190879081106200080e576200080e62002ac2565b90600052602060002090600a02016008018190555060008086815481106200083a576200083a62002ac2565b600091825260208220600a90910201546040516001600160a01b039091169185919081818185875af1925050503d806000811462000895576040519150601f19603f3d011682016040523d82523d6000602084013e6200089a565b606091505b5050905080620008be5760405162461bcd60e51b81526004016200031c9062002bb0565b6000808781548110620008d557620008d562002ac2565b90600052602060002090600a020160070160016101000a8154816001600160a01b0302191690836001600160a01b031602179055505050505050505050565b6001600160a01b038216600090815260026020908152604080832084845290915281205481549091849181908490811062000953576200095362002ac2565b6000918252602082206004600a90920201015481546001600160a01b0390911692508190859081106200098a576200098a62002ac2565b60009182526020909120600a909102016007015461010090046001600160a01b031614620009f05760405162461bcd60e51b8152602060048201526012602482015271627579696e6720696e2070726f677265737360701b60448201526064016200031c565b6000848152600660205260409020600101546001600160a01b03161562000a4e5760405162461bcd60e51b8152602060048201526011602482015270185c185c9d1b595b9d081a5b881c995b9d607a1b60448201526064016200031c565b336001600160a01b03166000848154811062000a6e5762000a6e62002ac2565b60009182526020909120600a90910201546001600160a01b03161462000ac35760405162461bcd60e51b81526020600482015260096024820152683737ba1037bbb732b960b91b60448201526064016200031c565b604051632142170760e11b81526001600160a01b038316906342842e0e9062000af59030903390899060040162002b24565b600060405180830381600087803b15801562000b1057600080fd5b505af115801562000b25573d6000803e3d6000fd5b50506040516370a0823160e01b81523360048201526001600160a01b038416925063fcd3533c915082906370a0823190602401602060405180830381865afa15801562000b76573d6000803e3d6000fd5b505050506040513d601f19601f8201168201806040525081019062000b9c919062002b0a565b6040516001600160e01b031960e084901b1681526004810191909152336024820152604401600060405180830381600087803b15801562000bdc57600080fd5b505af115801562000bf1573d6000803e3d6000fd5b50506001549150600090508167ffffffffffffffff81111562000c185762000c186200291e565b60405190808252806020026020018201604052801562000c42578160200160208202803683370190505b50600180546040805160208084028201810190925282815293945083018282801562000c8e57602002820191906000526020600020905b81548152602001906001019080831162000c79575b5050505050905060005b8281101562000d41578682828151811062000cb75762000cb762002ac2565b60200260200101510362000d2c57816001835162000cd6919062002bde565b8151811062000ce95762000ce962002ac2565b602002602001015182828151811062000d065762000d0662002ac2565b602002602001018181525050816001908051906020019062000d2a9291906200268f565b505b8062000d388162002bf4565b91505062000c98565b50600180548062000d565762000d5662002c10565b6001900381819060005260206000200160009055905550505050505050565b60015460609060009067ffffffffffffffff81111562000d995762000d996200291e565b60405190808252806020026020018201604052801562000dd657816020015b62000dc2620026df565b81526020019060019003908162000db85790505b50905060005b60015481101562000f4257600760006001838154811062000e015762000e0162002ac2565b6000918252602080832091909101548352828101939093526040918201902081516101a08101835281546001600160a01b0390811682526001808401549182169583019590955290939192840191600160a01b90910460ff169081111562000e6d5762000e6d620027b9565b600181111562000e815762000e81620027b9565b8152600282015460208201526003820154604082015260048201546001600160a01b03908116606083015260058301546080830152600683015460a0830152600783015460ff808216151560c08501526101009182900490921660e0840152600884015481840152600990930154808216151561012084015292909204909116151561014090910152825183908390811062000f215762000f2162002ac2565b6020026020010181905250808062000f399062002bf4565b91505062000ddc565b50919050565b6001600160a01b0381166000908152600260209081526040808320858452909152812054815490919081908390811062000f865762000f8662002ac2565b90600052602060002090600a020160040160009054906101000a90046001600160a01b0316905060006002826001600160a01b03166318160ddd6040518163ffffffff1660e01b8152600401602060405180830381865afa15801562000ff0573d6000803e3d6000fd5b505050506040513d601f19601f8201168201806040525081019062001016919062002b0a565b62001022919062002b8d565b905060006200103782642e90edd00062002b73565b600087815260076020526040902090915060018082810154600160a01b900460ff16908111156200106c576200106c620027b9565b14620010b25760405162461bcd60e51b81526020600482015260146024820152731c1c9bdc195c9d081b9bdd08199bdc881c995b9d60621b60448201526064016200031c565b6009810154610100900460ff16156200110e5760405162461bcd60e51b815260206004820152601b60248201527f70726f706572747920616c72656164792072656e746564206f7574000000000060448201526064016200031c565b80546001600160a01b0316620011675760405162461bcd60e51b815260206004820152601760248201527f70726f706572747920646f6573206e6f7420657869737400000000000000000060448201526064016200031c565b6000878152600660205260409020348314620011bc5760405162461bcd60e51b81526020600482015260136024820152721a5b9cdd59999a58da595b9d08185b5bdd5b9d606a1b60448201526064016200031c565b815460028201546001600160a01b03908116911614620012185760405162461bcd60e51b815260206004820152601660248201527573686179207520646579207768796e65206d65206e6960501b60448201526064016200031c565b338160010160006101000a8154816001600160a01b0302191690836001600160a01b0316021790555042816004018190555060008260040160009054906101000a90046001600160a01b03169050806001600160a01b03166323b872dd8460000160009054906101000a90046001600160a01b0316338d6040518463ffffffff1660e01b8152600401620012af9392919062002b24565b6020604051808303816000875af1158015620012cf573d6000803e3d6000fd5b505050506040513d601f19601f82011682018060405250810190620012f5919062002b48565b620013345760405162461bcd60e51b815260206004820152600e60248201526d14995b9d1a5b99c819985a5b195960921b60448201526064016200031c565b50505050505050505050565b6001600160a01b0385166000908152600260209081526040808320878452909152812054815433908390839081106200137d576200137d62002ac2565b60009182526020909120600a90910201546001600160a01b031614620013f75760405162461bcd60e51b815260206004820152602860248201527f4f6e6c7920746865206f776e6572206f662074686973204e46542063616e206160448201526718d8d95cdcc81a5d60c21b60648201526084016200031c565b6001600082815481106200140f576200140f62002ac2565b90600052602060002090600a020160070160006101000a81548160ff0219169083151502179055506000878733888888306040516200144e906200274a565b62001460979695949392919062002c6e565b604051809103906000f0801580156200147d573d6000803e3d6000fd5b509050806000838154811062001497576200149762002ac2565b60009182526020909120600a9091020160040180546001600160a01b0319166001600160a01b0392909216919091179055979650505050505050565b6001600160a01b0380831660008181526002602090815260408083208684528252808320543380855260038452828520958552949092529091205490921614620015525760405162461bcd60e51b815260206004820152600f60248201526e2737ba1030903232b330bab63a32b960891b60448201526064016200031c565b6000818154811062001568576200156862002ac2565b90600052602060002090600a0201600301546276a7006200158a919062002aee565b421062001665573360009081526003602090815260408083206001600160a01b03871684529091528120600101548154909190819084908110620015d257620015d262002ac2565b600091825260208220600a9190910201600701546040516101009091046001600160a01b03169184919081818185875af1925050503d806000811462001635576040519150601f19603f3d011682016040523d82523d6000602084013e6200163a565b606091505b50509050806200165e5760405162461bcd60e51b81526004016200031c9062002bb0565b5050505050565b60405162461bcd60e51b815260206004820152601260248201527118d85b9b9bdd081c9958db185a5b481e595d60721b60448201526064016200031c565b505050565b6001600160a01b0382166000908152600260209081526040808320848452909152812054815490919082908110620016e457620016e462002ac2565b600091825260209091206009600a90920201015460ff16620017335760405162461bcd60e51b8152602060048201526007602482015266696e2073616c6560c81b60448201526064016200031c565b336001600160a01b03166000828154811062001753576200175362002ac2565b60009182526020909120600a90910201546001600160a01b031614620017a85760405162461bcd60e51b81526020600482015260096024820152683737ba1037bbb732b960b91b60448201526064016200031c565b6000606460008381548110620017c257620017c262002ac2565b90600052602060002090600a0201600801546050620017e2919062002b73565b620017ee919062002b8d565b905060006064600084815481106200180a576200180a62002ac2565b90600052602060002090600a02016008015460146200182a919062002b73565b62001836919062002b8d565b905080600560008282546200184c919062002aee565b9250508190555060008084815481106200186a576200186a62002ac2565b600091825260208220600a90910201546040516001600160a01b039091169185919081818185875af1925050503d8060008114620018c5576040519150601f19603f3d011682016040523d82523d6000602084013e620018ca565b606091505b5050905080620018ee5760405162461bcd60e51b81526004016200031c9062002bb0565b505050505050565b60006200190984642e90edd00062002b73565b6001600160a01b038316600090815260026020908152604080832087845290915281205481549293509181908390811062001948576200194862002ac2565b6000918252602082206004600a90920201015481546001600160a01b0390911692508190849081106200197f576200197f62002ac2565b60009182526020909120600a909102016007015461010090046001600160a01b03161480620019ed5750336001600160a01b031660008381548110620019c957620019c962002ac2565b60009182526020909120600a909102016007015461010090046001600160a01b0316145b62001a2b5760405162461bcd60e51b815260206004820152600d60248201526c4e6f7420617661696c61626c6560981b60448201526064016200031c565b600080838154811062001a425762001a4262002ac2565b90600052602060002090600a020160010160149054906101000a900460ff16600181111562001a755762001a75620027b9565b1462001ab45760405162461bcd60e51b815260206004820152600d60248201526c666f722073616c65206f6e6c7960981b60448201526064016200031c565b82341462001af65760405162461bcd60e51b815260206004820152600e60248201526d0dcdee840cadcdeeaced040cae8d60931b60448201526064016200031c565b806001600160a01b03166318160ddd6040518163ffffffff1660e01b8152600401602060405180830381865afa15801562001b35573d6000803e3d6000fd5b505050506040513d601f19601f8201168201806040525081019062001b5b919062002b0a565b86111562001b6857600080fd5b6000828154811062001b7e5762001b7e62002ac2565b600091825260209091206007600a90920201015460ff1662001bcf5760405162461bcd60e51b8152602060048201526009602482015268273790313abcb7b33360b91b60448201526064016200031c565b6000828154811062001be55762001be562002ac2565b600091825260209091206009600a90920201015460ff161562001c3b5760405162461bcd60e51b815260206004820152600d60248201526c1c1c9bdc195c9d1e4814dbdb19609a1b60448201526064016200031c565b6000828154811062001c515762001c5162002ac2565b90600052602060002090600a0201600301546276a70062001c73919062002aee565b421062001cb55760405162461bcd60e51b815260206004820152600f60248201526e1d1a5b59481a185cc81c185cdcd959608a1b60448201526064016200031c565b60006001600160a01b03166000838154811062001cd65762001cd662002ac2565b60009182526020909120600a909102016007015461010090046001600160a01b03160362001e6457806001600160a01b03166323b872dd6000848154811062001d235762001d2362002ac2565b60009182526020909120600a90910201546040516001600160e01b031960e084901b16815262001d64916001600160a01b03169033908b9060040162002b24565b6020604051808303816000875af115801562001d84573d6000803e3d6000fd5b505050506040513d601f19601f8201168201806040525081019062001daa919062002b48565b50336000838154811062001dc25762001dc262002ac2565b90600052602060002090600a020160070160016101000a8154816001600160a01b0302191690836001600160a01b03160217905550826000838154811062001e0e5762001e0e62002ac2565b90600052602060002090600a0201600801600082825462001e30919062002aee565b92505081905550426000838154811062001e4e5762001e4e62002ac2565b90600052602060002090600a0201600301819055505b336001600160a01b03166000838154811062001e845762001e8462002ac2565b60009182526020909120600a909102016007015461010090046001600160a01b031603620018ee57806001600160a01b03166323b872dd6000848154811062001ed15762001ed162002ac2565b60009182526020909120600a90910201546040516001600160e01b031960e084901b16815262001f12916001600160a01b03169033908b9060040162002b24565b6020604051808303816000875af115801562001f32573d6000803e3d6000fd5b505050506040513d601f19601f8201168201806040525081019062001f58919062002b48565b50826000838154811062001f705762001f7062002ac2565b90600052602060002090600a0201600801600082825462001f92919062002aee565b9091555050505050505050565b6001600160a01b0382166000908152600260209081526040808320848452909152812054815490919081908390811062001fdd5762001fdd62002ac2565b6000918252602082206004600a90920201015481546001600160a01b039091169250859133918590811062002016576200201662002ac2565b60009182526020909120600a909102016007015461010090046001600160a01b031614620020735760405162461bcd60e51b81526020600482015260096024820152683737ba10313abcb2b960b91b60448201526064016200031c565b816001600160a01b03166318160ddd6040518163ffffffff1660e01b8152600401602060405180830381865afa158015620020b2573d6000803e3d6000fd5b505050506040513d601f19601f82011682018060405250810190620020d8919062002b0a565b6040516370a0823160e01b81523360048201526001600160a01b038416906370a0823190602401602060405180830381865afa1580156200211d573d6000803e3d6000fd5b505050506040513d601f19601f8201168201806040525081019062002143919062002b0a565b14620021885760405162461bcd60e51b81526020600482015260136024820152727061796d656e74206f75747374616e64696e6760681b60448201526064016200031c565b600160008481548110620021a057620021a062002ac2565b60009182526020909120600a90910201600901805460ff1916911515919091179055604051632142170760e11b81526001600160a01b038216906342842e0e90620021f49030903390899060040162002b24565b600060405180830381600087803b1580156200220f57600080fd5b505af115801562002224573d6000803e3d6000fd5b50506040516370a0823160e01b81523360048201526001600160a01b038516925063fcd3533c915082906370a0823190602401602060405180830381865afa15801562002275573d6000803e3d6000fd5b505050506040513d601f19601f820116820180604052508101906200229b919062002b0a565b6040516001600160e01b031960e084901b1681526004810191909152336024820152604401600060405180830381600087803b158015620022db57600080fd5b505af1158015620022f0573d6000803e3d6000fd5b505050505050505050565b604051632142170760e11b815284906001600160a01b038216906342842e0e906200232f9033903090899060040162002b24565b600060405180830381600087803b1580156200234a57600080fd5b505af11580156200235f573d6000803e3d6000fd5b505050506200236d620026df565b3381526001600160a01b038616602082015260608101859052600061010082015260408101846001811115620023a757620023a7620027b9565b90816001811115620023bd57620023bd620027b9565b90525060c08101839052600080546001808201835591805282517f290decd9548b62a8d60345a988386fc84ba6bc95484008f6362f93160ef3e563600a90920291820180546001600160a01b03199081166001600160a01b0393841617825560208601517f290decd9548b62a8d60345a988386fc84ba6bc95484008f6362f93160ef3e56490940180549182169490931693841783556040860151869592949093926001600160a81b03199092161790600160a01b908490811115620024875762002487620027b9565b0217905550606082015160028201556080820151600382015560a08201516004820180546001600160a01b0319166001600160a01b0392831617905560c0830151600583015560e08301516006830155610100808401516007840180546101208701516001600160a81b0319909116921515610100600160a81b03191692909217919093168202179091556101408301516008830155610160830151600990920180546101809094015161ffff1990941692151561ff00191692909217921515029190911790556000546200255f9060019062002bde565b6001600160a01b0390961660009081526002602090815260408083208884529091528120969096555050600180548082018255945250507fb10e2d527612073b26eecdfd717e6a320cf44b4afac2b0732d9fcbe2b7fa0cf690910155565b6000818152600760209081526040808320600690925290912060048101546003820154620025ec919062002aee565b421115620016a35760098201805461ff00191690556004808301546001830154600284015484546040516323b872dd60e01b81526001600160a01b039485169586956323b872dd9562002649959082169491169290910162002b24565b6020604051808303816000875af115801562002669573d6000803e3d6000fd5b505050506040513d601f19601f820116820180604052508101906200165e919062002b48565b828054828255906000526020600020908101928215620026cd579160200282015b82811115620026cd578251825591602001919060010190620026b0565b50620026db92915062002758565b5090565b604080516101a0810182526000808252602082018190529091820190815260006020820181905260408201819052606082018190526080820181905260a0820181905260c0820181905260e08201819052610100820181905261012082018190526101409091015290565b6110c58062002cd383390190565b5b80821115620026db576000815560010162002759565b80356001600160a01b03811681146200278757600080fd5b919050565b60008060408385031215620027a057600080fd5b620027ab836200276f565b946020939093013593505050565b634e487b7160e01b600052602160045260246000fd5b60028110620027ee57634e487b7160e01b600052602160045260246000fd5b9052565b602080825282518282018190526000919060409081850190868401855b82811015620028d957815180516001600160a01b039081168652878201511687860152858101516200284487870182620027cf565b50606081810151908601526080808201519086015260a0808201516001600160a01b039081169187019190915260c0808301519087015260e08083015190870152610100808301511515908701526101208083015190911690860152610140808201519086015261016080820151151590860152610180908101511515908501526101a090930192908501906001016200280f565b5091979650505050505050565b600080600060608486031215620028fc57600080fd5b833592506020840135915062002915604085016200276f565b90509250925092565b634e487b7160e01b600052604160045260246000fd5b600082601f8301126200294657600080fd5b813567ffffffffffffffff808211156200296457620029646200291e565b604051601f8301601f19908116603f011681019082821181831017156200298f576200298f6200291e565b81604052838152866020858801011115620029a957600080fd5b836020870160208301376000602085830101528094505050505092915050565b600080600080600060a08688031215620029e257600080fd5b620029ed866200276f565b94506020860135935060408601359250606086013567ffffffffffffffff8082111562002a1957600080fd5b62002a2789838a0162002934565b9350608088013591508082111562002a3e57600080fd5b5062002a4d8882890162002934565b9150509295509295909350565b6000806000806080858703121562002a7157600080fd5b62002a7c856200276f565b93506020850135925060408501356002811062002a9857600080fd5b9396929550929360600135925050565b60006020828403121562002abb57600080fd5b5035919050565b634e487b7160e01b600052603260045260246000fd5b634e487b7160e01b600052601160045260246000fd5b8082018082111562002b045762002b0462002ad8565b92915050565b60006020828403121562002b1d57600080fd5b5051919050565b6001600160a01b039384168152919092166020820152604081019190915260600190565b60006020828403121562002b5b57600080fd5b8151801515811462002b6c57600080fd5b9392505050565b808202811582820484141762002b045762002b0462002ad8565b60008262002bab57634e487b7160e01b600052601260045260246000fd5b500490565b6020808252601490820152732330b4b632b2103a379039b2b7321022ba3432b960611b604082015260600190565b8181038181111562002b045762002b0462002ad8565b60006001820162002c095762002c0962002ad8565b5060010190565b634e487b7160e01b600052603160045260246000fd5b6000815180845260005b8181101562002c4e5760208185018101518683018201520162002c30565b506000602082860101526020601f19601f83011685010191505092915050565b600060018060a01b03808a168352886020840152808816604084015286606084015260e0608084015262002ca660e084018762002c26565b83810360a085015262002cba818762002c26565b92505080841660c0840152509897505050505050505056fe60806040523480156200001157600080fd5b50604051620010c5380380620010c5833981016040819052620000349162000268565b82826003620000448382620003ac565b506004620000538282620003ac565b5050600580546001600160a01b03808b166001600160a01b03199283161790925560068990556007805489841690831617905560088054821633179055600b80549285169290911691909117905550620000ae8585620000bb565b50505050505050620004a0565b6001600160a01b038216620001165760405162461bcd60e51b815260206004820152601f60248201527f45524332303a206d696e7420746f20746865207a65726f206164647265737300604482015260640160405180910390fd5b80600260008282546200012a919062000478565b90915550506001600160a01b038216600081815260208181526040808320805486019055518481527fddf252ad1be2c89b69c2b068fc378daa952ba7f163c4a11628f55a4df523b3ef910160405180910390a35050565b505050565b80516001600160a01b03811681146200019e57600080fd5b919050565b634e487b7160e01b600052604160045260246000fd5b600082601f830112620001cb57600080fd5b81516001600160401b0380821115620001e857620001e8620001a3565b604051601f8301601f19908116603f01168101908282118183101715620002135762000213620001a3565b816040528381526020925086838588010111156200023057600080fd5b600091505b8382101562000254578582018301518183018401529082019062000235565b600093810190920192909252949350505050565b600080600080600080600060e0888a0312156200028457600080fd5b6200028f8862000186565b965060208801519550620002a66040890162000186565b606089015160808a015191965094506001600160401b0380821115620002cb57600080fd5b620002d98b838c01620001b9565b945060a08a0151915080821115620002f057600080fd5b50620002ff8a828b01620001b9565b9250506200031060c0890162000186565b905092959891949750929550565b600181811c908216806200033357607f821691505b6020821081036200035457634e487b7160e01b600052602260045260246000fd5b50919050565b601f8211156200018157600081815260208120601f850160051c81016020861015620003835750805b601f850160051c820191505b81811015620003a4578281556001016200038f565b505050505050565b81516001600160401b03811115620003c857620003c8620001a3565b620003e081620003d984546200031e565b846200035a565b602080601f831160018114620004185760008415620003ff5750858301515b600019600386901b1c1916600185901b178555620003a4565b600085815260208120601f198616915b82811015620004495788860151825594840194600190910190840162000428565b5085821015620004685787850151600019600388901b60f8161c191681555b5050505050600190811b01905550565b808201808211156200049a57634e487b7160e01b600052601160045260246000fd5b92915050565b610c1580620004b06000396000f3fe608060405234801561001057600080fd5b50600436106101165760003560e01c806355150d24116100a2578063a457c2d711610071578063a457c2d714610247578063a9059cbb1461025a578063bed1dbbe1461026d578063dd62ed3e14610280578063fcd3533c1461029357600080fd5b806355150d24146101f057806370a082311461020357806379cc67901461022c57806395d89b411461023f57600080fd5b806323b872dd116100e957806323b872dd1461017b578063310c87cc1461018e578063313ce567146101b957806339509351146101c857806342966c68146101db57600080fd5b806306fdde031461011b578063095ea7b3146101395780630fe550d11461015c57806318160ddd14610173575b600080fd5b6101236102a6565b6040516101309190610a23565b60405180910390f35b61014c610147366004610a8d565b610338565b6040519015158152602001610130565b61016560065481565b604051908152602001610130565b600254610165565b61014c610189366004610ab7565b610352565b6005546101a1906001600160a01b031681565b6040516001600160a01b039091168152602001610130565b60405160128152602001610130565b61014c6101d6366004610a8d565b6103fe565b6101ee6101e9366004610af3565b610420565b005b6008546101a1906001600160a01b031681565b610165610211366004610b0c565b6001600160a01b031660009081526020819052604090205490565b6101ee61023a366004610a8d565b61042d565b610123610446565b61014c610255366004610a8d565b610455565b61014c610268366004610a8d565b6104d0565b6007546101a1906001600160a01b031681565b61016561028e366004610b2e565b610536565b6101ee6102a1366004610b61565b610561565b6060600380546102b590610b84565b80601f01602080910402602001604051908101604052809291908181526020018280546102e190610b84565b801561032e5780601f106103035761010080835404028352916020019161032e565b820191906000526020600020905b81548152906001019060200180831161031157829003601f168201915b5050505050905090565b6000336103468185856105b6565b60019150505b92915050565b600061035d60025490565b6001600160a01b0384811660009081526020819052604080822054928816825290205461038a9190610bbe565b146103dc5760405162461bcd60e51b815260206004820152601760248201527f63616e6e6f7420757365207472616e7366657266726f6d00000000000000000060448201526064015b60405180910390fd5b336103e88582856106db565b6103f3858585610755565b506001949350505050565b6000336103468185856104118383610536565b61041b9190610bbe565b6105b6565b61042a33826108f9565b50565b6104388233836106db565b61044282826108f9565b5050565b6060600480546102b590610b84565b600033816104638286610536565b9050838110156104c35760405162461bcd60e51b815260206004820152602560248201527f45524332303a2064656372656173656420616c6c6f77616e63652062656c6f77604482015264207a65726f60d81b60648201526084016103d3565b6103f382868684036105b6565b60006104db60025490565b336000908152602081905260409020541461052a5760405162461bcd60e51b815260206004820152600f60248201526e31b0b73737ba103a3930b739b332b960891b60448201526064016103d3565b33610346818585610755565b6001600160a01b03918216600090815260016020908152604080832093909416825291909152205490565b600b546001600160a01b031633146105ac5760405162461bcd60e51b815260206004820152600e60248201526d1b9bdd08185d5d1a1bdc9a5e995960921b60448201526064016103d3565b61044281836108f9565b6001600160a01b0383166106185760405162461bcd60e51b8152602060048201526024808201527f45524332303a20617070726f76652066726f6d20746865207a65726f206164646044820152637265737360e01b60648201526084016103d3565b6001600160a01b0382166106795760405162461bcd60e51b815260206004820152602260248201527f45524332303a20617070726f766520746f20746865207a65726f206164647265604482015261737360f01b60648201526084016103d3565b6001600160a01b0383811660008181526001602090815260408083209487168084529482529182902085905590518481527f8c5be1e5ebec7d5bd14f71427d1e84f3dd0314c0f7b2291e5b200ac8c7c3b92591015b60405180910390a3505050565b60006106e78484610536565b9050600019811461074f57818110156107425760405162461bcd60e51b815260206004820152601d60248201527f45524332303a20696e73756666696369656e7420616c6c6f77616e636500000060448201526064016103d3565b61074f84848484036105b6565b50505050565b6001600160a01b0383166107b95760405162461bcd60e51b815260206004820152602560248201527f45524332303a207472616e736665722066726f6d20746865207a65726f206164604482015264647265737360d81b60648201526084016103d3565b6001600160a01b03821661081b5760405162461bcd60e51b815260206004820152602360248201527f45524332303a207472616e7366657220746f20746865207a65726f206164647260448201526265737360e81b60648201526084016103d3565b6001600160a01b038316600090815260208190526040902054818110156108935760405162461bcd60e51b815260206004820152602660248201527f45524332303a207472616e7366657220616d6f756e7420657863656564732062604482015265616c616e636560d01b60648201526084016103d3565b6001600160a01b03848116600081815260208181526040808320878703905593871680835291849020805487019055925185815290927fddf252ad1be2c89b69c2b068fc378daa952ba7f163c4a11628f55a4df523b3ef910160405180910390a361074f565b6001600160a01b0382166109595760405162461bcd60e51b815260206004820152602160248201527f45524332303a206275726e2066726f6d20746865207a65726f206164647265736044820152607360f81b60648201526084016103d3565b6001600160a01b038216600090815260208190526040902054818110156109cd5760405162461bcd60e51b815260206004820152602260248201527f45524332303a206275726e20616d6f756e7420657863656564732062616c616e604482015261636560f01b60648201526084016103d3565b6001600160a01b0383166000818152602081815260408083208686039055600280548790039055518581529192917fddf252ad1be2c89b69c2b068fc378daa952ba7f163c4a11628f55a4df523b3ef91016106ce565b600060208083528351808285015260005b81811015610a5057858101830151858201604001528201610a34565b506000604082860101526040601f19601f8301168501019250505092915050565b80356001600160a01b0381168114610a8857600080fd5b919050565b60008060408385031215610aa057600080fd5b610aa983610a71565b946020939093013593505050565b600080600060608486031215610acc57600080fd5b610ad584610a71565b9250610ae360208501610a71565b9150604084013590509250925092565b600060208284031215610b0557600080fd5b5035919050565b600060208284031215610b1e57600080fd5b610b2782610a71565b9392505050565b60008060408385031215610b4157600080fd5b610b4a83610a71565b9150610b5860208401610a71565b90509250929050565b60008060408385031215610b7457600080fd5b82359150610b5860208401610a71565b600181811c90821680610b9857607f821691505b602082108103610bb857634e487b7160e01b600052602260045260246000fd5b50919050565b8082018082111561034c57634e487b7160e01b600052601160045260246000fdfea2646970667358221220fd55f8236519353e1ce2cc23304bbf4c0cec38615da8208d0655c41025bd2fd764736f6c63430008130033a2646970667358221220967036a5a5e7667cf569d0ecb50cf206ff43f509d6f777ab78a62cee15b0d36b64736f6c63430008130033",
    "linkReferences": {}
  },
  "methodIdentifiers": {
    "RentProperty(uint256,uint256,address)": "5c8a467c",
    "RetrievePropertyOnDefault(address,uint256)": "0b1e0fd3",
    "buyPropertyInstallMent(uint256,uint256,address)": "a2c8adc0",
    "claimPaymentOnProperty(address,uint256)": "7e8889e4",
    "claimProperty(address,uint256)": "ac32f7c0",
    "createFraction(address,uint256,uint256,string,string)": "7ab5bda9",
    "depositPropertyNft(address,uint256,uint8,uint256)": "bf4b8b15",
    "exitProperty(address,uint256)": "2d3312fc",
    "getAllProperties()": "3d51402c",
    "reclaimAmountPaid(address,uint256)": "7c919026",
    "stopRent(uint256)": "d80021dc"
  },
  "id": 17
}