{
  "abi": [
    {
      "inputs": [
        {
          "internalType": "uint256",
          "name": "_amt",
          "type": "uint256"
        },
        {
          "internalType": "uint256",
          "name": "_nftID",
          "type": "uint256"
        }
      ],
      "name": "RentProperty",
      "outputs": [],
      "stateMutability": "payable",
      "type": "function"
    },
    {
      "inputs": [
        {
          "internalType": "uint256",
          "name": "_amount",
          "type": "uint256"
        },
        {
          "internalType": "uint256",
          "name": "_nftID",
          "type": "uint256"
        },
        {
          "internalType": "address",
          "name": "_nftContractAddress",
          "type": "address"
        }
      ],
      "name": "buyPropertyInstallMent",
      "outputs": [],
      "stateMutability": "payable",
      "type": "function"
    },
    {
      "inputs": [
        {
          "internalType": "address",
          "name": "_nftContractAddress",
          "type": "address"
        },
        {
          "internalType": "uint256",
          "name": "_nftId",
          "type": "uint256"
        }
      ],
      "name": "createFraction",
      "outputs": [],
      "stateMutability": "nonpayable",
      "type": "function"
    },
    {
      "inputs": [
        {
          "internalType": "address",
          "name": "_nftContractAddress",
          "type": "address"
        },
        {
          "internalType": "uint256",
          "name": "_nftId",
          "type": "uint256"
        },
        {
          "internalType": "enum NeutrinoEstate.Status",
          "name": "_status",
          "type": "uint8"
        }
      ],
      "name": "depositPropertyNft",
      "outputs": [],
      "stateMutability": "nonpayable",
      "type": "function"
    },
    {
      "inputs": [],
      "name": "getAllProperties",
      "outputs": [
        {
          "components": [
            {
              "internalType": "address",
              "name": "owner",
              "type": "address"
            },
            {
              "internalType": "address",
              "name": "nftContractAddress",
              "type": "address"
            },
            {
              "internalType": "enum NeutrinoEstate.Status",
              "name": "propertyStatus",
              "type": "uint8"
            },
            {
              "internalType": "uint256",
              "name": "nftId",
              "type": "uint256"
            },
            {
              "internalType": "uint256",
              "name": "InitialdepositTimestamp",
              "type": "uint256"
            },
            {
              "internalType": "address",
              "name": "fractionContractAddress",
              "type": "address"
            },
            {
              "internalType": "uint256",
              "name": "supply",
              "type": "uint256"
            },
            {
              "internalType": "bool",
              "name": "hasFractionalized",
              "type": "bool"
            },
            {
              "internalType": "address",
              "name": "isBuyer",
              "type": "address"
            },
            {
              "internalType": "uint256",
              "name": "amountPaid",
              "type": "uint256"
            },
            {
              "internalType": "bool",
              "name": "isSold",
              "type": "bool"
            },
            {
              "internalType": "bool",
              "name": "isRented",
              "type": "bool"
            },
            {
              "internalType": "bool",
              "name": "ownerdisabled",
              "type": "bool"
            }
          ],
          "internalType": "struct NeutrinoEstate.PropertyInfo[]",
          "name": "",
          "type": "tuple[]"
        }
      ],
      "stateMutability": "view",
      "type": "function"
    },
    {
      "inputs": [
        {
          "internalType": "address",
          "name": "_nftContractAddress",
          "type": "address"
        },
        {
          "internalType": "uint256",
          "name": "_nftId",
          "type": "uint256"
        }
      ],
      "name": "getRefundOnProperty",
      "outputs": [],
      "stateMutability": "nonpayable",
      "type": "function"
    },
    {
      "inputs": [
        {
          "internalType": "uint256",
          "name": "_nftID",
          "type": "uint256"
        }
      ],
      "name": "stopRent",
      "outputs": [],
      "stateMutability": "nonpayable",
      "type": "function"
    }
  ],
  "bytecode": {
    "object": "0x608060405234801561001057600080fd5b50611679806100206000396000f3fe6080604052600436106100705760003560e01c8063455a802f1161004e578063455a802f146100d557806378ce5eb1146100f5578063a2c8adc014610115578063d80021dc1461012857600080fd5b8063183d42b81461007557806320695cba1461008a5780633d51402c146100aa575b600080fd5b6100886100833660046112f9565b610148565b005b34801561009657600080fd5b506100886100a5366004611337565b610423565b3480156100b657600080fd5b506100bf6106a7565b6040516100cc9190611399565b60405180910390f35b3480156100e157600080fd5b506100886100f036600461148b565b6108c6565b34801561010157600080fd5b50610088610110366004611337565b610a10565b6100886101233660046114cf565b610afe565b34801561013457600080fd5b50610088610143366004611504565b61126d565b600081815260036020526040902060018082810154600160a01b900460ff169081111561017757610177611361565b146101c05760405162461bcd60e51b81526020600482015260146024820152731c1c9bdc195c9d081b9bdd08199bdc881c995b9d60621b60448201526064015b60405180910390fd5b6008810154610100900460ff161561021a5760405162461bcd60e51b815260206004820152601a60248201527f70726f7065727420616c72656164792072656e746564206f757400000000000060448201526064016101b7565b80546001600160a01b03166102715760405162461bcd60e51b815260206004820152601760248201527f70726f706572747920646f6573206e6f7420657869737400000000000000000060448201526064016101b7565b6000828152602081905260409020805434146102c55760405162461bcd60e51b81526020600482015260136024820152721a5b9cdd59999a58da595b9d08185b5bdd5b9d606a1b60448201526064016101b7565b815460028201546001600160a01b0390811691161461031f5760405162461bcd60e51b815260206004820152601660248201527573686179207520646579207768796e65206d65206e6960501b60448201526064016101b7565b6001810180546001600160a01b03191633908117909155426004808401919091558381015460405163a9059cbb60e01b815291820192909252602481018690526001600160a01b0390911690819063a9059cbb906044016020604051808303816000875af1158015610395573d6000803e3d6000fd5b505050506040513d601f19601f820116820180604052508101906103b9919061151d565b6103f65760405162461bcd60e51b815260206004820152600e60248201526d14995b9d1a5b99c819985a5b195960921b60448201526064016101b7565b61041c846000908152600360205260409020600801805462ff0000191662010000179055565b5050505050565b6001600160a01b0382166000908152600460209081526040808320848452909152812054600180549192918390811061045e5761045e611546565b906000526020600020906009020160040160009054906101000a90046001600160a01b031690506001828154811061049857610498611546565b60009182526020909120600990910201546001600160a01b031633146104f55760405162461bcd60e51b81526020600482015260126024820152712727aa10282927a822a92a2c9027aba722a960711b60448201526064016101b7565b6001828154811061050857610508611546565b9060005260206000209060090201600301546228de806105289190611572565b4210156105695760405162461bcd60e51b815260206004820152600f60248201526e1393d5081156141254915108165155608a1b60448201526064016101b7565b60006001838154811061057e5761057e611546565b60009182526020909120600990910201600801805460ff19168215151790556105d95760405162461bcd60e51b815260206004820152600d60248201526c141c9bdc195c9d1e4814dbdb19609a1b60448201526064016101b7565b806001600160a01b03166323b872dd600184815481106105fb576105fb611546565b906000526020600020906009020160060160019054906101000a90046001600160a01b0316336001868154811061063457610634611546565b9060005260206000209060090201600701546040518463ffffffff1660e01b81526004016106649392919061158b565b6020604051808303816000875af1158015610683573d6000803e3d6000fd5b505050506040513d601f19601f8201168201806040525081019061041c919061151d565b60025460609060009067ffffffffffffffff8111156106c8576106c86115af565b60405190808252806020026020018201604052801561075f57816020015b604080516101a08101825260008082526020808301829052928201819052606082018190526080820181905260a0820181905260c0820181905260e08201819052610100820181905261012082018190526101408201819052610160820181905261018082015282526000199092019101816106e65790505b50905060005b6002548110156108c057600360006002838154811061078657610786611546565b6000918252602080832091909101548352828101939093526040918201902081516101a08101835281546001600160a01b0390811682526001808401549182169583019590955290939192840191600160a01b90910460ff16908111156107ef576107ef611361565b600181111561080057610800611361565b8152600282015460208201526003820154604082015260048201546001600160a01b03908116606083015260058301546080830152600683015460ff808216151560a08501526101009182900490921660c0840152600784015460e0840152600890930154808216151584840152928304811615156101208301526201000090920490911615156101409091015282518390839081106108a2576108a2611546565b602002602001018190525080806108b8906115c5565b915050610765565b50919050565b604051632142170760e11b815283906001600160a01b038216906342842e0e906108f89033903090889060040161158b565b600060405180830381600087803b15801561091257600080fd5b505af1158015610926573d6000803e3d6000fd5b50505060008481526003602052604090208054336001600160a01b0319918216178255600180830180549283166001600160a01b038a1690811782556002850189905560068501805460ff19169055939450869390926001600160a81b0319161790600160a01b90849081111561099f5761099f611361565b0217905550600180546109b291906115de565b6001600160a01b0390951660009081526004602090815260408083208784529091528120959095555050600280546001810182559352507f405787fa12a823e0f2b7631cc41b3ba8828b3321ca811111fa75cd3aa3bb5ace90910155565b6001600160a01b03821660009081526004602090815260408083208484529091529020546001805433919083908110610a4b57610a4b611546565b60009182526020909120600990910201546001600160a01b031614610ac35760405162461bcd60e51b815260206004820152602860248201527f4f6e6c7920746865206f776e6572206f662074686973204e46542063616e206160448201526718d8d95cdcc81a5d60c21b60648201526084016101b7565b6001808281548110610ad757610ad7611546565b60009182526020909120600990910201600601805460ff1916911515919091179055505050565b6000610b0f84642e90edd0006115f1565b6001600160a01b038316600090815260046020908152604080832087845290915281205460018054939450909283908110610b4c57610b4c611546565b60009182526020822060046009909202010154600180546001600160a01b0390921693509084908110610b8157610b81611546565b600091825260209091206009909102016006015461010090046001600160a01b03161480610beb5750336001600160a01b031660018381548110610bc757610bc7611546565b600091825260209091206009909102016006015461010090046001600160a01b0316145b610c275760405162461bcd60e51b815260206004820152600d60248201526c4e6f7420617661696c61626c6560981b60448201526064016101b7565b600060018381548110610c3c57610c3c611546565b906000526020600020906009020160010160149054906101000a900460ff166001811115610c6c57610c6c611361565b14610ca95760405162461bcd60e51b815260206004820152600d60248201526c666f722073616c65206f6e6c7960981b60448201526064016101b7565b823414610ce95760405162461bcd60e51b815260206004820152600e60248201526d0dcdee840cadcdeeaced040cae8d60931b60448201526064016101b7565b806001600160a01b03166318160ddd6040518163ffffffff1660e01b8152600401602060405180830381865afa158015610d27573d6000803e3d6000fd5b505050506040513d601f19601f82011682018060405250810190610d4b9190611608565b861115610d5757600080fd5b60018281548110610d6a57610d6a611546565b600091825260209091206006600990920201015460ff16610dbb5760405162461bcd60e51b815260206004820152600b60248201526a6275796f6666206f6e6c7960a81b60448201526064016101b7565b60018281548110610dce57610dce611546565b90600052602060002090600902016003015462278d00610dee9190611572565b421115610f49576000606460018481548110610e0c57610e0c611546565b9060005260206000209060090201600701546046610e2a91906115f1565b610e349190611621565b9050600060018481548110610e4b57610e4b611546565b906000526020600020906009020160070181905550600060018481548110610e7557610e75611546565b60009182526020822060099190910201600601546040516101009091046001600160a01b03169184919081818185875af1925050503d8060008114610ed6576040519150601f19603f3d011682016040523d82523d6000602084013e610edb565b606091505b5050905080610f235760405162461bcd60e51b81526020600482015260146024820152732330b4b632b2103a379039b2b7321022ba3432b960611b60448201526064016101b7565b60006001600160a01b031660018581548110610f4157610f41611546565b506000525050505b60006001600160a01b031660018381548110610f6757610f67611546565b600091825260209091206009909102016006015461010090046001600160a01b0316036110e157806001600160a01b03166323b872dd60018481548110610fb057610fb0611546565b60009182526020909120600990910201546040516001600160e01b031960e084901b168152610fef916001600160a01b03169033908b9060040161158b565b6020604051808303816000875af115801561100e573d6000803e3d6000fd5b505050506040513d601f19601f82011682018060405250810190611032919061151d565b50336001838154811061104757611047611546565b906000526020600020906009020160060160016101000a8154816001600160a01b0302191690836001600160a01b03160217905550826001838154811061109057611090611546565b906000526020600020906009020160070160008282546110b09190611572565b9250508190555042600183815481106110cb576110cb611546565b9060005260206000209060090201600301819055505b336001600160a01b0316600183815481106110fe576110fe611546565b600091825260209091206009909102016006015461010090046001600160a01b03160361115f57826001838154811061113957611139611546565b906000526020600020906009020160070160008282546111599190611572565b90915550505b806001600160a01b03166318160ddd6040518163ffffffff1660e01b8152600401602060405180830381865afa15801561119d573d6000803e3d6000fd5b505050506040513d601f19601f820116820180604052508101906111c19190611608565b6040516370a0823160e01b81523360048201526001600160a01b038316906370a0823190602401602060405180830381865afa158015611205573d6000803e3d6000fd5b505050506040513d601f19601f820116820180604052508101906112299190611608565b0361126557600180838154811061124257611242611546565b60009182526020909120600990910201600801805460ff19169115159190911790555b505050505050565b600081815260036020818152604080842091849052909220600481015491810154909161129991611572565b4211156112f45760088201805462ffff00191690556004808301546001830154600284015484546040516323b872dd60e01b81526001600160a01b039485169586956323b872dd95610664959082169491169290910161158b565b505050565b6000806040838503121561130c57600080fd5b50508035926020909101359150565b80356001600160a01b038116811461133257600080fd5b919050565b6000806040838503121561134a57600080fd5b6113538361131b565b946020939093013593505050565b634e487b7160e01b600052602160045260246000fd5b6002811061139557634e487b7160e01b600052602160045260246000fd5b9052565b602080825282518282018190526000919060409081850190868401855b8281101561147e57815180516001600160a01b039081168652878201511687860152858101516113e887870182611377565b50606081810151908601526080808201519086015260a0808201516001600160a01b039081169187019190915260c0808301519087015260e080830151151590870152610100808301519091169086015261012080820151908601526101408082015115159086015261016080820151151590860152610180908101511515908501526101a090930192908501906001016113b6565b5091979650505050505050565b6000806000606084860312156114a057600080fd5b6114a98461131b565b9250602084013591506040840135600281106114c457600080fd5b809150509250925092565b6000806000606084860312156114e457600080fd5b83359250602084013591506114fb6040850161131b565b90509250925092565b60006020828403121561151657600080fd5b5035919050565b60006020828403121561152f57600080fd5b8151801515811461153f57600080fd5b9392505050565b634e487b7160e01b600052603260045260246000fd5b634e487b7160e01b600052601160045260246000fd5b808201808211156115855761158561155c565b92915050565b6001600160a01b039384168152919092166020820152604081019190915260600190565b634e487b7160e01b600052604160045260246000fd5b6000600182016115d7576115d761155c565b5060010190565b818103818111156115855761158561155c565b80820281158282048414176115855761158561155c565b60006020828403121561161a57600080fd5b5051919050565b60008261163e57634e487b7160e01b600052601260045260246000fd5b50049056fea26469706673582212202d4d9826c1ec11166b3e9e05f4bb9c48efc079b18f8fe78cd15e0e8c9b30210264736f6c63430008130033",
    "linkReferences": {}
  },
  "methodIdentifiers": {
    "RentProperty(uint256,uint256)": "183d42b8",
    "buyPropertyInstallMent(uint256,uint256,address)": "a2c8adc0",
    "createFraction(address,uint256)": "78ce5eb1",
    "depositPropertyNft(address,uint256,uint8)": "455a802f",
    "getAllProperties()": "3d51402c",
    "getRefundOnProperty(address,uint256)": "20695cba",
    "stopRent(uint256)": "d80021dc"
  },
  "id": 38
}